:020000040800F2
:1000000070210020210200088F1D0008491C0008F3
:100010008D1D0008B1050008991F000800000000B0
:10002000000000000000000000000000890100083E
:10003000F705000800000000CD010008B91D000808
:100040003B0200083B0200083B0200083B0200089C
:100050003B0200083B0200083B0200083B0200088C
:100060003B0200083B0200083B020008C1050008F3
:100070003B0200083B0200083B0200083B0200086C
:100080003B0200083B0200083B0200083B0200085C
:100090008D1F0008B50500083B0200083B02000860
:1000A0003B0200083B0200083B0200083B0200083C
:1000B0003B0200083B0200085D1E00083B020008EE
:1000C0003B0200083B0200083B0200083B0200081C
:1000D0003B0200083B0200083B0200083B0200080C
:1000E0003B0200083B0200083B02000800F002F857
:1000F00000F03AF80AA090E8000C82448344AAF188
:100100000107DA4501D100F02FF8AFF2090EBAE885
:100110000F0013F0010F18BFFB1A43F0010318473B
:100120003438000054380000103A24BF78C878C131
:10013000FAD8520724BF30C830C144BF04680C60ED
:10014000704700000023002400250026103A28BF35
:1001500078C1FBD8520728BF30C148BF0B60704739
:100160001FB51FBD10B510BD00F045F91146FFF7D2
:10017000F7FF01F069FF00F063F903B4FFF7F2FF46
:1001800003BC00F06BF90000224B19680868B0E866
:10019000F00F80F30988BFF36F8F4FF0000080F3FA
:1001A00011884EF00D0E70470000000006480068F0
:1001B000006880F3088862B661B6BFF34F8FBFF363
:1001C0006F8F00DF00BF00BF08ED00E0EFF3098094
:1001D000BFF36F8F0F4B1A6820E9F00F106008B55E
:1001E0004FF0500080F31188BFF34F8FBFF36F8F34
:1001F00002F07CFE4FF0000080F31188BDE808405B
:1002000019680868B0E8F00F80F30988BFF36F8FB2
:10021000704700BF18000020EFF305807047000012
:100220000948804709480047FEE7FEE7FEE7FEE78A
:10023000FEE7FEE7FEE7FEE7FEE7FEE704480549C6
:10024000054A064B70470000591E0008ED000008E3
:10025000701B002070210020701D0020701D0020E8
:10026000032A40F2308010F0030C00F0158011F8E2
:10027000013BBCF1020F624498BF11F801CB00F8BA
:10028000013B38BF11F8013BA2F1040298BF00F80E
:1002900001CB38BF00F8013B11F0030300F0578099
:1002A000083AC0F0088051F8043B083A51F804CBF2
:1002B000A0E80810F5E7121D5CBF51F8043B40F8B8
:1002C000043BAFF30080D20724BF11F8013B11F8C3
:1002D00001CB48BF11F8012B24BF00F8013B00F807
:1002E00001CB48BF00F8012B704702F0FF0343EA3F
:1002F000032242EA024200F05EB84FF0000200B56D
:10030000134694469646203922BFA0E80C50A0E838
:100310000C50B1F12001BFF4F7AF090728BFA0E8E6
:100320000C5048BF0CC05DF804EB890028BF40F8B2
:10033000042B08BF704748BF20F8022B11F0804FF4
:1003400018BF00F8012B704770477047704710B511
:10035000203AC0F00B80B1E81850203AA0E81850BD
:10036000B1E81850A0E81850BFF4F5AF5FEA027C7E
:1003700024BFB1E81850A0E8185044BF18C918C0ED
:10038000BDE810405FEA827C24BF51F8043B40F88E
:10039000043B08BF7047D20728BF31F8023B48BF73
:1003A00011F8012B28BF20F8023B48BF00F8012BB1
:1003B00070474FF000020429C0F0128010F0030CC7
:1003C0003FF49DAFCCF1040CBCF1020F18BF00F854
:1003D000012BA8BF20F8022BA1EB0C01FFF78FBF68
:1003E0005FEAC17C24BF00F8012B00F8012B48BF55
:1003F00000F8012B7047754600F02CF8AE4605005A
:100400006946534620F00700854618B020B5FFF72F
:1004100015FFBDE820404FF000064FF000074FF0F9
:1004200000084FF0000B21F00701AC46ACE8C00912
:10043000ACE8C009ACE8C009ACE8C0098D4670471B
:1004400010B50446AFF300802046BDE81040FFF72A
:1004500094BE0000004870470C1B00200149182082
:10046000ABBEFEE7260002007047000070B50446F0
:1004700000688168C943C90717D1816821F001016B
:10048000816000F087FE05460AE000BF00F082FEB2
:10049000401B022804D920688068C043C00706D0EA
:1004A00020688068C043C007F0D0002070BDA06AFB
:1004B00040F01000A062E06A40F00100E06201201C
:1004C00070BD10B50146406A826A12F0500F05D027
:1004D000006A026BBDE8104008461047816A41F48B
:1004E0000071816201688968C1F3424107290CD11A
:1004F000017B51B9816A21F480718162816AC904EA
:1005000003D4816A41F00101816200F0F5F810BD69
:1005100010B5406A816A41F040018162C16A41F0D0
:100520000401C16200F0EAF810BD10B5406A00F0A5
:10053000E4F810BDF8B5002604460096006881680E
:10054000C943C9072DD0816841F001018160164877
:1005500016490068B0FBF1F000E0401E0090002852
:10056000FBD100F017FE054616E000BF00F012FEBA
:10057000401B022810D920688068C043C0070BD0F8
:10058000A06A40F01000A062E06A40F00100E06262
:1005900084F824600120F8BD20688068C043C0074B
:1005A000E4D10020F8BD00001400002040420F00FC
:1005B000FEE70000014800F010BA0000C40000206F
:1005C000014800F0E7BB00003401002030B590F88E
:1005D00040500124AC40C56B6C60046863604368A4
:1005E000102B036803D099600068C26030BD9A6028
:1005F0000068C16030BD704772B6FEE7F8B50024F0
:10060000009490F824202546012A12D0012280F877
:1006100024204A681F23072A0DD20668776B521ED2
:1006200002EB820293409F430B6893401F43776322
:1006300019E00220F8BD06680D2A0AD2376BD21FD6
:1006400002EB820293409F430B6893401F43376342
:1006500009E0F76A0D3A02EB820293409F430B6870
:1006600093401F43F7620A68072306680A2A0AD3E1
:10067000F7680A3A02EB420293409F438B6893402B
:100680001F43F76008E0376902EB420293409F4343
:100690008B6893401F4337610A68102A01D0112AE2
:1006A00020D1124B02689A4217D193681B0219D4C9
:1006B000936843F4000393600968102912D10C4930
:1006C0000C4A0968B1FBF2F101EB8101490000E03D
:1006D000491E00910029FBD104E0816A41F020010C
:1006E0008162012480F824502046F8BD0024014096
:1006F0001400002040420F00704770477047000010
:100700002DE9F0414FF0000704003D467ED0A06A7D
:10071000002628B9E66284F82460204600F07EF8BE
:100720002046FFF7A3FEA16A01F01001014304D0A7
:10073000A06A40F01000A06268E0A16A21F488512C
:1007400041F00201A1626268E169237B0A4347EA42
:1007500043010A43A1684FF48077B94208D00129C8
:1007600006D0002194F814C0BCF1010F02D00AE0B9
:100770003946F7E7F3B1A36A43F02003A362E36AC3
:1007800043F00103E3622368D3F804C02CF4694CFE
:100790004CEA010CC3F804C023689968DFF870C004
:1007A00001EA0C0111439960A168B9420BD00129FB
:1007B00009D00CE0DFF85CC0A3690CEB43330B43BA
:1007C00043F40061DFE7218A0D05A5F58015216856
:1007D000CB6A23F470032B43CB62216889680E4BEC
:1007E0001940914208D1E662A16A21F0020141F06C
:1007F0000101A162BDE8F081A06A20F0020040F092
:100800001000A062E06A40F00100E0620120F1E720
:10081000FDF7E1FF00E0FFFFFE0E1FFF70B586B0A1
:10082000002506460095019502950395006821492B
:1008300088423CD12049886940F400708861886909
:1008400000F400700490886940F0040088618869B1
:1008500000F004000490886940F00800886188690D
:10086000032400F008000490FF20CDE9000469464D
:10087000124800F09FFB009469461148019400F073
:1008800099FB114C0F48C4E900058020C4E90250CF
:1008900040002061800060612020C4E906052046F8
:1008A00000F022FB08B1FFF7A7FE3462666206B0D3
:1008B00070BD00000024014000100240000801400B
:1008C000000C014008000240340100202DE9F047EF
:1008D000894604463B4900683B4F0E1D90468842BE
:1008E00001D0B84207D1306810F4702F03D0012531
:1008F0002846BDE8F08794F8240001280CD0012098
:1009000084F824002046FFF715FE05004FF0000094
:1009100004D084F82400EBE70220EAE7A16A40F65D
:100920000162914341F48071A1622168B94218D1FA
:10093000326812F4702F14D0A16A41F48011A162C0
:100940003168490505D5A16A21F4005141F480516F
:10095000A162A16AC9040AD5E16A21F00601E16237
:1009600006E0A26A22F48012A2624968E9E7E06226
:1009700084F82400216A15488862216A1448C862F4
:10098000216A1448086321686FF00200086020683B
:10099000816841F480718160216843464A464C3148
:1009A000206A00F0CFFA20688168C1F3424107292C
:1009B000816803D041F48011816099E741F4A0017E
:1009C000FAE700000024014000280140C3040008A9
:1009D0002B0500081105000870472DE9F05F05465A
:1009E000006800244669D0F804908768D0F80CB0FD
:1009F000D0F810A0D0F81880F10748D0F90714D02B
:100A000001218160B80703D5284600F0BDF90CE04C
:100A1000780702D54FF4006407E0380702D54FF499
:100A2000805402E0284600F0AEF9F80516D5296892
:100A30004FF480708860B80503D5284600F0A6F909
:100A40000CE0780502D544F4005407E0380502D5DF
:100A500044F4804402E0284600F097F9F80316D5E4
:100A600029684FF480308860B80303D5284600F029
:100A70008FF90CE0780302D544F4004407E0380312
:100A800002D544F4803402E0284600F080F93007B3
:100A900007D55FEACB6004D52968102044F40074C0
:100AA000C86070074FF0080707D55FEA0B7004D5E0
:100AB0002868C760284600F061F9B00706D52868A5
:100AC000C068800702D0284600F059F9700607D5A3
:100AD0005FEACA6004D52968102044F48064086184
:100AE000B00607D55FEA0A7004D528680761284672
:100AF00000F046F9F00606D528680069800702D0A4
:100B0000284600F03EF9B00308D55FEAC96005D574
:100B1000296810204860284600F034F9F00307D512
:100B20005FEA097004D528684760284600F031F96B
:100B3000300446D55FEA497040D5F00504D55FEA38
:100B4000C87001D044F00104B00504D55FEA887094
:100B500001D544F00204700504D55FEA487001D560
:100B600044F00404300529D518F0700F26D008F0A1
:100B70007000402815D006DC102809D020280AD0A3
:100B8000302816D10AE050280ED0602811D10EE08E
:100B900044F008040DE044F010040AE044F020049E
:100BA00007E044F0400404E044F0800401E044F431
:100BB00080742868816921F07001816129680420AE
:100BC0004860002C05D0686A204368622846FFF719
:100BD00003FFBDE8F09F70B5040003D094F8200037
:100BE00010B104E0012070BD204600F081F82068BB
:100BF000016841F00101016000F0CCFA05460526CC
:100C000004E000F0C7FA401B0A2811D820684068A9
:100C1000C007F6D02068016821F00201016000F0F1
:100C2000B9FA05460BE000F0B5FA401B0A2806D9D0
:100C3000606A40F40030606284F82060D2E7206887
:100C400040688007EFD4207E0128206801683DD0ED
:100C500021F080010160607E01282068016838D0A1
:100C600021F040010160A07E01282068016833D096
:100C700021F020010160E07E0128206801682ED06B
:100C800041F010010160207F01282068016829D00F
:100C900021F008010160607F01282068016824D0EC
:100CA00021F004010160D4E902010843D4E90412EF
:100CB000114308436168491E08432168C861002048
:100CC0006062012084F82000002070BD41F08001A6
:100CD000C0E741F04001C5E741F02001CAE721F03B
:100CE0001001CFE741F00801D4E741F00401D9E752
:100CF00010B586B000210091019102910391006826
:100D00001B49884232D11B48C16941F00071C16161
:100D1000C16901F000710491816941F004018161B0
:100D20008069154C00F0040004904FF400600090BE
:100D30006946204600F03EF9A01400900220019080
:100D4000032003906946204600F034F90022052173
:100D5000142000F0BDFA142000F0ACFA00220521A6
:100D6000152000F0B5FA152000F0A4FA06B010BD69
:100D700000640040001002400008014070477047C6
:100D800070477047704770477047704770477047AB
:100D9000704770472DE9F05FC16B0C6801680B6804
:100DA000D0F840C0042202FA0CF2494DDFF824A129
:100DB000494E4A4FDFF828B1DFF828E122422CD013
:100DC0005A072AD50A68920603D40A6822F0040258
:100DD0000A600168A94201D1042219E0514501D1FC
:100DE000402215E0B14202D14FF4806210E0B942D6
:100DF00002D14FF480420BE0594502D14FF48022DA
:100E000006E0714502D14FF4800201E04FF08062AC
:100E10002F4908394A60C16A3BE04FF0020808FADE
:100E20000CF818EA040F4FF000094FF0010235D01A
:100E30005FEA837832D50B689B0605D40B6823F0F4
:100E40000A030B6080F821200168A94201D1022227
:100E500019E0514501D1202215E0B14202D14FF4F1
:100E6000007210E0B94202D14FF400520BE0594534
:100E700002D14FF4003206E0714502D14FF4001266
:100E800001E04FF00072124908394A6080F8209062
:100E9000816A00291AD0BDE8F05F0847082505FAE5
:100EA0000CF5254212D01B0710D50B6823F00E035A
:100EB0000B6090F84010C36B02FA01F15960826335
:100EC00080F8212080F82090016BE2E7BDE8F09FD8
:100ED000080002401C000240300002404400024072
:100EE000580002406C00024030B528B308C81349CE
:100EF00014221944B1FBF2F18900C16310498163E6
:100F0000022141771A6843F6F0718A43D0E9001450
:100F10002143D0E902452C4321430469214344691C
:100F20002143846921431143196000214163012257
:100F300042770177084630BD012030BDF8FFFDBF84
:100F40000000024070B5044690F8200000250128FA
:100F50000CD0012084F8200094F821600020012E9C
:100F600006D084F820000225284670BD022070BDFE
:100F7000022684F82160A0632068066826F0010636
:100F800006602046FFF722FBE06A0028206801681F
:100F900002D041F00E0106E021F00401016020685A
:100FA000016841F00A0101602068016841F0010117
:100FB0000160D9E72DE9F84FDFF8B8910024A9F1D5
:100FC000040B23460F2709F1040AABF1040EC9E014
:100FD0000125A5402A40AA427DD1674ED1F804C020
:100FE000ACEB0608B44532D014DCBCF1030F3AD0A8
:100FF00009DCBCF1000F2AD0BCF1010F1CD0BCF100
:10100000020F31D11DE0BCF1110F17D0BCF1120F4E
:101010002AD119E0B8F5881F19D006DCB8F5803F51
:1010200015D0B8F5801F1FD111E0B8F5001F0ED004
:10103000B8F5041F18D10AE0CB6815E0CB681B1D7A
:1010400012E0CB6808330FE0CB680C330CE08B6800
:101050002BB1012B4FF0080303D0456104E00423BA
:1010600002E0056100E00023FF2A01D8064601E006
:1010700000F104064FEA840501D9A5F12005D6F850
:10108000008007FA05FC28EA0C0803FA05F548EA8F
:101090000508C6F800804D68ED0062D5374DAE6991
:1010A00046F00106AE61AD6924F0030605F00105C6
:1010B0000095334D06EB050CDCF80850A607360FFB
:1010C00007FA06F825EA0805DFF8B880404503D19D
:1010D0004FF0000817E044E0DFF8AC80404502D153
:1010E0004FF001080FE0DFF8A480404502D14FF037
:1010F000020808E0DFF89880404502D14FF003086D
:1011000001E04FF0040808FA06F848EA0508CCF8B0
:1011100008804D68D9F80060ED024D4601D51643B0
:1011200000E096432E604D68DAF80060AD02554647
:1011300001D5164300E096432E604D68DBF8006051
:10114000AD035D4601D5164300E096432E604D6821
:10115000DEF80060ED03754601D5164300E09643C6
:101160002E60641C0D682A46E5407FF431AFBDE86F
:10117000F88F000008040140000011100010024028
:101180000000014000080140000C01400010014037
:1011900000140140014880687047000008000020EA
:1011A000024881680278114481607047080000207D
:1011B000074810B5016841F010010160032000F0FC
:1011C000A7F80F2000F006F800F050F8002010BD3E
:1011D0000020024030B505461F4887B0C16941F084
:1011E0000401C161C06906A900F00400009001A8D3
:1011F00000F0ACF90498B0B100F0C8F9400017490C
:10120000174AB0FBF1F11748491E0260416040F2F5
:10121000E7320021C0E903218160816100F08EFB8B
:10122000040003D015E000F0B1F9E8E70D4800F044
:10123000B3FB04000DD11E2000F03CF8102D07D2A6
:10124000002229461E2000F043F80748056000E010
:10125000012407B0204630BD0010024040420F007C
:1012600000080040780100200C0000200F4808B55D
:10127000816941F001018161816901F00101009101
:10128000C16941F08051C161C069002200F0805005
:1012900000900F21901E00F01BF80548416821F0D6
:1012A000E06141F00071416008BD000000100240A3
:1012B00000000140002809DB00F01F0201219140DD
:1012C0004009800000F1E020C0F8001170470000E4
:1012D000F0B40E4B1B680C46C3F30223C3F10705A1
:1012E000042D00D90425191D072901D2002300E08F
:1012F000DB1E012606FA05F1491E214099409E4059
:10130000761E16403143F0BC00F047BE0CED00E005
:10131000064900F0070208684FF6FF03184040EA4C
:101320000220034A10430860704700000CED00E003
:101330000000FA052DE9F84305460078354CC00752
:1013400054D0E0690026C00008D4E06940F0805025
:10135000E061E069012600F0805000902E480168AD
:10136000C90512D40168804641F480710160FFF71D
:1013700011FF074605E000BFFFF70CFFC01B642804
:1013800023D8D8F80000C005F6D5206A10F44070C4
:1013900021D0A98801F4407181421CD0206A1F49E4
:1013A000012220F440700A6000220A602062C00717
:1013B00011D0FFF7EFFE074641F2883808E000BF82
:1013C000FFF7E8FEC11B414502D90320BDE8F883C1
:1013D000206A8007F4D5206A696820F440700843C9
:1013E00020621EB1E06920F08050E061287880071B
:1013F00005D56068A96820F44040084360602878FB
:10140000C00605D56068E96820F480000843606084
:101410000020DBE700100240007000404004424220
:101420002DE9F0470F46050061D0434E306800F0CB
:101430000700B84209D2306820F007003843306016
:10144000306800F00700B84251D128683B4C810752
:1014500012D5400703D5606840F4E06060602878EA
:10146000000703D5606840F4605060606068A96858
:1014700020F0F000084360602878C00728D0686832
:10148000012810D02168022810D0890700292EDAFF
:10149000616821F0030101436160FFF77BFE804634
:1014A00041F288390DE021688903EFE78901EDE712
:1014B000FFF770FEA0EB0801494502D90320BDE803
:1014C000F0876068696800F00C00B0EB810FEFD125
:1014D000306800F00700B8420BD9306820F00700F0
:1014E00038433060306800F00700B84201D0012076
:1014F000E5E72878400705D56068E96820F4E060F2
:10150000084360602878000706D56068296920F4E0
:10151000605040EAC100606000F058F86168084A15
:10152000C1F30311515CC8400649086006480068D1
:10153000FFF750FE0020C2E70020024000100240EA
:1015400026390008140000200C0000200F22026041
:101550000C4A536803F003034360536803F0F0033D
:101560008360536803F4E063C36052684FF4E06340
:1015700003EAD20202610448006800F00700086034
:101580007047000000100240002002400448054956
:1015900000684968044AC1F30221515CC8407047A1
:1015A00014000020001002403639000804480549A4
:1015B00000684968044AC1F3C221515CC8407047C1
:1015C0001400002000100240363900080E4A51680D
:1015D0000E4801F00C03042B11D0082B0FD10C483E
:1015E000C1F38343C903C05C0AD55168084AC1F3FB
:1015F0004041921E515C054A5043B0FBF1F07047E8
:1016000004494843704700000010024000127A006D
:101610001639000800093D002DE9F84F040070D08C
:101620002078C04DC00749D06868C0F38100012808
:1016300007D06868C0F38100022809D16868C00338
:1016400006D52868800339D560680028E7D035E0E2
:101650006068B0F5803F0BD010B1B0F5A02F11D06D
:10166000286820F480302860286820F4802002E078
:10167000286840F480302860606890B1FFF78AFDE8
:1016800006460AE0286840F480202860F0E700BFA2
:10169000FFF780FD801B642873D828688003F7D586
:1016A0000CE0FFF777FD064605E000BFFFF772FD8F
:1016B000801B6428F0D828688003F7D420789A4EDD
:1016C00080074FF001094FF0000839D5686810F025
:1016D0000C0F07D06868C0F38100022809D1686840
:1016E000C00306D42868800714D52069012808D1D2
:1016F00010E02069B0B1C6F80090FFF74BFD074637
:1017000005E00AE1FFF746FDC01B0228C4D828689F
:101710008007F7D52868616920F0F80040EAC10029
:1017200028600DE0C6F80080FFF734FD074604E0AE
:10173000FFF730FDC01B022823D828688007F7D4A4
:10174000207800072CD57948A169D9B1C0F800905C
:10175000FFF720FD074604E0FFF71CFDC01B022831
:101760000FD8686A8007F7D571484FF4FA510068BE
:10177000B0FBF1F0009000BF0098411E0091FAD23A
:101780000EE080E0C0F80080FFF704FD074604E0AB
:10179000FFF700FDC01B022875D8686A8007F7D4E0
:1017A0002078400760D5E8690027C00008D4E869C0
:1017B00040F08050E861E869012700F08050009017
:1017C0005C480168C90513D40168834641F48071FF
:1017D0000160FFF7DFFC824606E000BFFFF7DAFC9E
:1017E000A0EB0A0064284ED8DBF80000C005F5D550
:1017F000E06801280AD008B1052813D0286A20F033
:1018000001002862286A20F0040002E0286A40F003
:1018100001002862E06841F2883B98B1FFF7BAFC0A
:1018200082460BE0286A40F004002862EEE700BF21
:10183000FFF7B0FCA0EB0A0159455AD8286A800787
:10184000F6D50CE0FFF7A6FC824605E0FFF7A2FC08
:10185000A0EB0A0159454CD8286A8007F6D41FB17D
:10186000E86920F08050E861E06988B36968C1F3F5
:101870008101022944D00228C6F8608004D0FFF715
:1018800089FC044638E034E0FFF784FC074604E0B6
:10189000FFF780FCC01B02282BD828688001F7D4F2
:1018A000206AB0F5803F05D16868A16820F4003057
:1018B00008436860D4E908010843696821F4741199
:1018C00008436860C6F86090FFF764FC044606E0D1
:1018D00025E000BFFFF75EFC001B022809D828683E
:1018E0008001F7D51BE000BFFFF754FC001B022866
:1018F00002D90320BDE8F88F28688001F4D40EE0F7
:101900000128F7D06868226A00F48031914204D13E
:10191000616A00F47010884201D00120EAE70020DB
:10192000E8E700000010024000004242800442420A
:1019300014000020007000407047704710B504008C
:1019400003D094F83D0010B107E0012010BD002045
:1019500084F83C00204600F01EF8022084F83D0088
:10196000211D206800F080FA012084F8460084F8E8
:101970003E0084F83F0084F8400084F8410084F879
:10198000420084F8430084F8440084F8450084F859
:101990003D00002010BD704790F83D10012901D096
:1019A00001207047022180F83D100168CA6842F0AA
:1019B0000102CA6000680B49884208D0B0F1804F2C
:1019C00005D00949884202D00849884204D181687B
:1019D00001F00701062903D0016841F0010101600F
:1019E00000207047002C0140000400400008004027
:1019F000704770B50446006801694FF00005C9439F
:101A0000890715D4C168C943890711D4E91E01614A
:101A100001202077206880698007204602D0FFF7E8
:101A2000E7FF04E000F098F8204600F096F82577EC
:101A300020680169C943490717D4C168C9434907E8
:101A400013D46FF0040101610220207720688069BF
:101A500010F4407F204602D0FFF7CAFF04E000F0F8
:101A60007BF8204600F079F8257720680169C943A2
:101A7000090716D4C168C943090712D46FF00801D9
:101A80000161042020772068C0698007204602D0C9
:101A9000FFF7AEFF04E000F05FF8204600F05DF8CD
:101AA000257720680169C943C90617D4C168C943AD
:101AB000C90613D46FF01001016108202077206857
:101AC000C06910F4407F204602D0FFF791FF04E088
:101AD00000F042F8204600F040F8257720680169C0
:101AE000C943C90708D1C168C943C90704D1891EC0
:101AF0000161204600F032F820680169C9430906F7
:101B000009D4C168C943090605D46FF08001016199
:101B10002046FFF711FF20680169C943490609D42F
:101B2000C168C943490605D46FF0400101612046F0
:101B300000F01EF820680169C94389060BD4C1680A
:101B4000C943890607D46FF0200101612046BDE832
:101B50007040FFF7F2BE70BD7047704700680349E0
:101B6000884201D1FFF71CBB70470000000800400D
:101B7000704770B5040004D094F84100002510B1FE
:101B800006E0012070BD84F84050204600F024F8A3
:101B9000242084F841002068C16821F40051C1600C
:101BA000204600F097F92068016921F49041016115
:101BB0002068416921F02A0141612068C16841F42F
:101BC0000051C1606564202084F8410084F842001F
:101BD0006563002070BD000030B585B0002400941E
:101BE00001940294039400681449884224D1144853
:101BF000816941F480418161816901F480410491EE
:101C0000816941F00401816180690E4D00F004009A
:101C100004904FF400700090022001900320039084
:101C200069462846FFF7C6F92815CDE9000469463C
:101C300028460294FFF7BEF905B030BD00380140D8
:101C40000010024000080140FEE70000FEB500243D
:101C50003E48009401943C490294016089158160DA
:101C60000125057304750A2606614FF4602144605E
:101C7000C161FEF745FD08B172B6FEE7CDE900454A
:101C8000694632480294FEF7B9FC08B172B6FEE725
:101C90000224CDE9005469462C48FEF7AFFC08B198
:101CA00072B6FEE700940324694628480194FEF7C3
:101CB000A5FC08B172B6FEE70094042469462348E7
:101CC0000194FEF79BFC08B172B6FEE70094052470
:101CD00069461E480194FEF791FC08B172B6FEE712
:101CE00000940624694619480194FEF787FC08B160
:101CF00072B6FEE700940724694614480194FEF783
:101D00007DFC08B172B6FEE70094082469460F48CE
:101D10000194FEF773FC08B172B6FEE70094092443
:101D200069460A480194FEF769FC08B172B6FEE7FD
:101D3000CDE9004669460548FEF760FC002801D061
:101D400072B6FEE7FEBD00000024014094000020B2
:101D50000D4810B50B4901600421416000218160EC
:101D6000C160016141610176012242768276C176CD
:101D700001774177FEF72FFF002801D072B6FEE70A
:101D800010BD000000640040C4000020FEE7FEE734
:101D900010B5064A0021064800F00AFA05494860D5
:101DA000BDE81040002000F0CBBF0000F038000874
:101DB000BD1F00080000002010B5502080F31188DE
:101DC000BFF34F8FBFF36F8F01F0DEFB18B10449F3
:101DD0004FF080500860002080F3118810BD000093
:101DE00004ED00E030B593B028216846FEF785FA8F
:101DF00014210AA8FEF781FA002401210F941094FF
:101E00000804CDE900101194129402940225049163
:101E1000CDE90750800009906846FFF7FDFB08B147
:101E200072B6FEE70F20CDE90A054FF48060CDE9D8
:101E30000C4000210AA80E94FFF7F2FA08B172B61E
:101E4000FEE70FA80F951194FFF774FA002801D050
:101E500072B6FEE713B030BD704700000148FFF7CF
:101E6000C8BD000078010020F0B50268164B174C81
:101E7000174D4FF08047984205D0B84203D0A0429A
:101E800001D0A84203D122F070064A68324398423A
:101E900005D0B84203D0A04201D0A84203D122F419
:101EA0004074CA6822434C6922F0800222430260D7
:101EB0008A68C2620A688262984201D10969016334
:101EC00001214161F0BD0000002C014000040040F0
:101ED0000008004070B5044600680169E26821F41A
:101EE0004051114301612169A068084361690843B9
:101EF0002168CA6841F20C639A430243CA602068B1
:101F00004169A26921F44071114341611E49206871
:101F1000884202D1FFF74AFB01E0FFF737FB00EBF5
:101F2000C00101EB0012606864218000B2FBF0F395
:101F3000B3FBF1F36FF018067343B2FBF0F5B2FB9D
:101F4000F0F605EB8305322303EB0515B5FBF1F540
:101F5000B6FBF1F605F0F00505EB0615B2FBF0F661
:101F6000B2FBF0F0B0FBF1F06FF01802504306EB5B
:101F7000800003EB0010B0FBF1F0216800F00F00CF
:101F80002844886070BD0000003801400148FEF719
:101F900024BD0000C4000020FEE70907090E002848
:101FA00004DB00F1E02080F80014704700F00F001F
:101FB00000F1E02080F8141D704700001E221F4928
:101FC0001F48FEF783FC08B1FEF716FB1B4E0025E9
:101FD0001C4C3C3E2580208846F82050401C80B296
:101FE00020800A28F7D3154A25804FF00A0C208854
:101FF000B0FBFCF10CFB1101618032F8107056F857
:102000002130401C3B4480B246F8213020801E28FD
:10201000EDD30A4A03232580143A208856F820106D
:10202000B1FBF3F122F81010401C80B220800A2886
:10203000F3D30A2000F066F8CCE70000D01A0020A5
:10204000940000209000002008B5FFF7B1F8FFF7DA
:10205000C9FE2648816941F020018161816901F052
:1020600020010091816941F004018161816901F0E1
:1020700004010091816941F008018161816901F0E9
:1020800008010091416941F001014161406900226C
:1020900000F00100009005210B20FFF719F90B203B
:1020A000FFF708F9FFF7D2FDFFF752FE114810497C
:1020B0000C2201604FF4E131416000218160C16078
:1020C000C0E904128161C161FFF753FD08B172B626
:1020D000FEE700F031F8084A0021084800F068F8EF
:1020E0000749086000F044F8FEE7000000100240D5
:1020F00000380140EC000020CC380008911D000899
:102100000000002010B5EFF3058149B9EFF310810D
:1021100031B908490968022905D1EFF3118111B1DC
:102120006FF0050403E0002408B100F0E3FD204651
:1021300010BD000068000020EFF3058058B9EFF3F0
:10214000108040B909490868022801D030B109E07F
:10215000EFF3118030B16FF0050070470120086087
:10216000002070474FF0FF307047000068000020EB
:1021700010B5EFF3058060B9EFF3108048B90B4953
:102180000868022802D0012806D00BE0EFF3118086
:1021900040B16FF0050010BD0220086000F05AFE4B
:1021A000002010BD4FF0FF3010BD0000680000207F
:1021B000F0B585B04FEA01034FF00004EFF305815D
:1021C0000394A1BBEFF3108189BB2149096802295F
:1021D00002D1EFF3118151BB48B3802618218DF84D
:1021E000104004AD42B3176807B13D4697691FB16F
:1021F00039467F1E382F02D21779FF0702D0002000
:1022000005B0F0BD576907B1BE08D2F808C0BCF1EF
:10221000000F0DD0D4685C2C18D312693AB137B1D5
:102220008DE806103246294601F06FF903900DE063
:10223000D7685FB912694AB903AACDE90012B2B2F0
:10224000294601F035F9012800D003940398D7E717
:10225000680000202DE9F041134C0F4605466669E1
:102260002068001D00F016FC681C07D137B12168FA
:10227000BDE8F0410D48091D00F05CBC2068354404
:10228000B5424560216805D2A068BDE8F041091D4E
:1022900000F038BC6068091D00F034FC206B8542FA
:1022A00000D22563BDE8F08118000020B0060020B0
:1022B0002DE9F041054600F049FC2D4C2069401CF9
:1022C000206120682B4F10B1E06930B32BE025600E
:1022D0002069012827D1002606EB860007EB800045
:1022E00000F002FC761C382EF6D3234800F0FCFBED
:1022F0002148143000F0F8FB1F48283000F0F4FBB0
:102300001D483C3000F0F0FB1B48503000F0ECFB67
:10231000194860601430A06005E02068E96AC06A6E
:10232000884200D82560E06A401CE0626864E86A80
:10233000A169884200D9A06100EB800007EB800012
:10234000291D00F0F7FB00F021FCE06900280CD00B
:102350002068E96AC06A884207D208494FF0805075
:102360000860BFF34F8FBFF36F8FBDE8F0810000AF
:1023700018000020000200206006002004ED00E0AC
:1023800038B500F0E3FB104CA068C8B90F4800F066
:10239000ABFB0E48143000F0A7FB0C482060143053
:1023A00060600A4B00202833009003F15002102196
:1023B0000A2000F021FEA06010B105A100F064FC2D
:1023C000BDE8384000F0E2BB54000020C406002005
:1023D000546D72510000000030B4026C0B46002AAC
:1023E0000BD0C1681144C1604468A14201D30168A7
:1023F000C16030BC1846FDF733BF30BC70472DE9D3
:10240000F041856B174604460026026C82B1C7B1C5
:10241000E068FDF725FFE168206C091AE160226899
:10242000914202D26168081AE060022F16D017E0CC
:102430002068A8B9606801F00BF9064600206060CA
:102440000EE0A068FDF70CFF216CA0680844A060B6
:102450006168884204D32068A06001E005B16D1E68
:102460006D1CA5633046BDE8F08110B5044690F8B8
:10247000590058B101280CD002280FD0502080F309
:102480001188BFF34F8FBFF36F8FFEE7206B00F013
:1024900091FB2046BDE8104000F08CBB10BD000051
:1024A00010484FF44061420706D0C01D0D4920F08E
:1024B0000700411AC1F540610B4A00230144C2E9FB
:1024C00000030839103A21F0070111604B600B60DE
:1024D0000B1AC0E9001393604FF000405360D060C6
:1024E00070470000940E00207C000020144E154C14
:1024F000A6F29C474FF08058DFF84C9012E000BFE6
:1025000000F024FBF068C568281D00F0C3FA2069BC
:10251000401E2061E068401EE06000F037FB284666
:10252000FFF7A3FFE0680028EAD138680128F9D94D
:10253000C9F80080BFF34F8FBFF36F8FF2E7000041
:102540009C0600201800002004ED00E070B51D4638
:10255000049C51B1C4F80020C4E90F0101212046B8
:1025600000F07EFD84F84C5070BD2460F4E72DE946
:10257000F0470E46DDE909841746824691009946E8
:10258000089DA522206BFDF7B0FE6FF00301206BC4
:1025900001EB8701084420F00707780707D0502097
:1025A00080F31188BFF34F8FBFF36F8FFEE72218C0
:1025B000315C82F83410315C11B1401C1028F6D324
:1025C000002684F84360382D00D33725E562C4E93E
:1025D0001356201D00F093FA04F1180000F08FFA52
:1025E0002461C5F138006462A061666584F85860B2
:1025F0004A465146384600F03BFA2060B8F1000FD9
:1026000001D0C8F80040BDE8F087000030B511499E
:1026100000E011460A688242FBD34B685C18844292
:1026200003D1406818444860084643681C18944227
:1026300009D1084C103C2468A24209D052681A44BF
:1026400042600A6812680260814200D0086030BDB2
:102650000460F9E77C00002070B5002441600B4D58
:102660000061914206D8D11A8269914206D2011DB9
:10267000686807E09A4203D2994201D3012403E03B
:10268000011D286800F03EFA204670BD540000206D
:1026900010B5044600F05AFAA06B28B15FF00004B0
:1026A00000F074FA204610BD0124F9E730B589B076
:1026B000304D55E00498002806DADDE90601059A58
:1026C0009047049800284BDB069C606910B1201DE0
:1026D00000F0E0F902A800F0B9F8024604980A28D0
:1026E0003ED2DFE800F00505053D263705053D260D
:1026F0000598A169034601442046FFF7ADFF00B3EA
:10270000616A20468847E069012829D100200090AD
:102710000598A169002342181946204601F0A2F845
:1027200078B9502080F31188BFF34F8FBFF36F8FBC
:10273000FEE70598A06128B1811813462046FFF7EF
:102740008BFF0DE0502080F31188BFF34F8FBFF354
:102750006F8FFEE794F82C0010B9204600F02AFA9B
:10276000002204A9A86800F0CDFD0028A2D109B07C
:1027700030BD0000540000202DE9FC410F46054605
:1027800000F0ACFB01A800F061F80446019818B114
:1027900000F0D6FFBDE8FC81224EAFB17068006842
:1027A000A8B30027291B3A46B06800F081FA00F070
:1027B000C7FF0028EED11C494FF080500860BFF3DE
:1027C0004F8FBFF36F8FE5E7A542EBD800F0B8FF5E
:1027D00030682746C068C468201D00F05BF9E069D6
:1027E000012810D1A0692B4641193A462046FFF72F
:1027F00033FF40B100200346014600902A462046A0
:1028000001F030F820B1616A20468847C2E707E04E
:10281000502080F31188BFF34F8FBFF36F8FFEE717
:102820000127BFE75400002004ED00E0064841689E
:10283000096829B14168C968C96849680163704776
:102840004FF0FF31FAE700001800002070B5054690
:1028500000F094FE064E04463069844203D200F034
:1028600009F8012000E0002028602046346170BD96
:1028700054000020F8B5194D1FE0C068C468066810
:10288000201D00F007F9616A20468847E0690128A9
:1028900013D1A0693044B04206D924616060211D83
:1028A000286800F02FF908E0002003460146009058
:1028B0003246204600F0D6FF38B12868016800296A
:1028C000DBD16968C5E90010F8BD502080F311889C
:1028D000BFF34F8FBFF36F8FFEE70000540000205F
:1028E00008484068401C4FF0500080F3118804D025
:1028F000BFF34F8FBFF36F8FFEE7BFF34F8FBFF371
:102900006F8FFEE784000020074C2068016841B10A
:10291000C0680021D0F80000FFF72EFFFFF7C6FEC9
:10292000F3E701210020F7E7540000202DE9F041F2
:10293000044600F00BF994F9455004F1240609E02F
:10294000606A48B1304600F0C3FE08B100F048FAB2
:102950006D1E6DB2002DF3DC4FF0FF3684F845603C
:1029600000F014F900F0F2F894F9445004F1100763
:1029700009E0206948B1384600F0AAFE08B100F02D
:102980002FFA6D1E6DB2002DF3DC84F84460BDE8B3
:10299000F04100F0FBB800002DE9F04105460027AA
:1029A00000F09CFA314E306808B9FFF779FDF06805
:1029B00005424BD1C5B3083568070ED005F00700B6
:1029C000C0F108000544680707D0502080F3118843
:1029D000BFF34F8FBFF36F8FFEE72DB37068854253
:1029E00034D82248103001460C6801E020460C46DD
:1029F0006168A94202D221680029F7D131688C426E
:102A000024D007682168016060680837411B1029DD
:102A10000FD96019420708D0502080F31188BFF306
:102A20004F8FBFF36F8FFEE710E041606560FFF7E7
:102A3000EDFD61687068401A7060B268904200D223
:102A4000B060F06801430020C4E9000100F078FEA6
:102A5000780707D0502080F31188BFF34F8FBFF362
:102A60006F8FFEE73846BDE8F08100006C00002063
:102A700010B5031F4FF080741C601B1F21F0010173
:102A80001960191F024B0B60143940380A6010BDE1
:102A9000E1280008D0E9013201699A60D0E90123F8
:102AA0005A604A68824201D182684A60002202610B
:102AB0000868401E0860086870470000034B036008
:102AC00003F15C000860802010607047DC07002084
:102AD000044B036003F15C0008604FF480701060E9
:102AE00070470000380A002000F108014FF0FF3263
:102AF000C0E90112C160016100210160704700213D
:102B00000161704730B50B685A1C02D000F1080211
:102B100002E0026904E02246546825689D42FAD921
:102B200053684B6099608A60516008610168491C74
:102B3000016030BD42684A6093688B609368596059
:102B4000916008610168491C01607047502080F362
:102B50001188BFF34F8FBFF36F8F0A494868401C3D
:102B6000486001280CD10848006810F0FF0F07D01A
:102B7000502080F31188BFF34F8FBFF36F8FFEE7B4
:102B8000704700008400002004ED00E00849486818
:102B900028B1401E486001D180F311887047502051
:102BA00080F31188BFF34F8FBFF36F8FFEE70000F4
:102BB0008400002070B5002827D0144DA0F108042F
:102BC0006168E868014207D1502080F31188BFF3A3
:102BD0004F8FBFF36F8FFEE722683AB1502080F32A
:102BE0001188BFF34F8FBFF36F8FFEE781436160A2
:102BF00000F074F960686968084468602046FFF76F
:102C000005FDBDE8704000F09BBD70BD6C0000206C
:102C10004FF0E02000210161816105494FF47A7293
:102C20000968B1FBF2F1491E41610721016170475A
:102C30001400002010B5FDF7EFFA114910280ED34B
:102C400000F1E02090F8F0030A78904207D250207B
:102C500080F31188BFF34F8FBFF36F8FFEE70948F2
:102C60000068896800F4E060884207D9502080F34A
:102C70001188BFF34F8FBFF36F8FFEE710BD0000C9
:102C8000840000200CED00E010B5084B002200BFCE
:102C900053F832401CB1521C082AF9D310BD43F836
:102CA000321003EBC201486010BD0000C0010020DB
:102CB00070B515460E460446FFF748FF94F94410D8
:102CC0000020491C01D184F8440094F94510491CA6
:102CD00001D184F84500FFF759FFA06B28B92A46B7
:102CE000314604F1240000F099F82046BDE8704018
:102CF000FFF71CBE10B5020014D00F48806B38B12E
:102D0000502080F31188BFF34F8FBFF36F8FFEE722
:102D100000F0E4F800211046FFF79CFA00F010FDE7
:102D2000002807D105494FF080500860BFF34F8F4E
:102D3000BFF36F8F10BD00001800002004ED00E00D
:102D400070B50546FFF702FF1E4C05B92568281D22
:102D5000FFF7A0FEA86A18B105F11800FFF79AFE68
:102D6000E06A401CE0622068854207D1291D1648B0
:102D7000FFF7E0FEE068401CE06007E02069401ECD
:102D800020612846FFF771FBFFF750FDFFF7FEFEBD
:102D9000E069002814D02068854211D1A06B38B1B9
:102DA000502080F31188BFF34F8FBFF36F8FFEE782
:102DB00006494FF080500860BFF34F8FBFF36F8F0D
:102DC00070BD0000180000209C06002004ED00E00B
:102DD00002498A6A02604969416070471800002010
:102DE00001490120486270471800002010B50C46C8
:102DF00050B1094909681831FFF784FE2046BDE843
:102E000010400121FFF726BA502080F31188BFF34C
:102E10004F8FBFF36F8FFEE71800002070B5144688
:102E20000D4668B10A4909681831FFF783FE0CB1F5
:102E30004FF0FF3521462846BDE87040FFF70ABA3B
:102E4000502080F31188BFF34F8FBFF36F8FFEE7E1
:102E50001800002030B587B00024039405AA04A907
:102E600003A80494FFF72AFEDDE903010094CDE9ED
:102E70000110002315A11748059A00F046FB164DD6
:102E8000002868631FD000F0BDFC012809D0401C59
:102E900019D1502080F31188BFF34F8FBFF36F8F8C
:102EA000FEE7502080F31188BFF34F8FBFF36F8F81
:102EB0004FF0FF3028630120E8616C6107B0BDE886
:102EC000304000F045B807B030BD000049444C45E3
:102ED00000000000ED240008180000200248816B6B
:102EE000491C81637047000018000020164810B587
:102EF000816B11B10121416210BD002141628169E4
:102F0000124A01E0B9B1491E01EB810352F82330A6
:102F1000002BF7D001EB810302EB830202F10804DE
:102F200053685B685360A34201D15B685360DA6801
:102F30000260816110BD502080F31188BFF34F8F74
:102F4000BFF36F8FFEE70000180000200002002092
:102F50001CB5264908780190FF20087008788DF884
:102F600000009DF800009DF8002000F0F000904265
:102F700007D0502080F31188BFF34F8FBFF36F8FBE
:102F8000FEE79DF800001A4B00F050001870072073
:102F9000986005E09DF8002052008DF80020401E4A
:102FA0009DF800201206F5D49860032807D0502021
:102FB00080F31188BFF34F8FBFF36F8FFEE74FF49D
:102FC00040709860019808700A48016841F47001E7
:102FD0000160016841F070410160FFF719FE0020B7
:102FE0005860FDF7E3F800201CBD000000E400E09D
:102FF0008400002020ED00E038B5049D18B153B1E5
:10300000CAB181B120E0502080F31188BFF34F8F07
:10301000BFF36F8FFEE7502080F31188BFF34F8F0F
:10302000BFF36F8FFEE7502080F31188BFF34F8FFF
:10303000BFF36F8FFEE739B1502080F31188BFF3E3
:103040004F8FBFF36F8FFEE750241C46012384F897
:1030500046302B460094FFF779FA204638BD000031
:1030600070B50D46040025D0FFF770FDD4E90F20A0
:10307000216802FB001161600021A1632168A16049
:103080000A46D4E90F01401E00FB0121E160214600
:103090004FF0FF3001F8440F487004F110008DB17B
:1030A000FFF722FD04F12400FFF71EFDFFF76EFD80
:1030B000012070BD502080F31188BFF34F8FBFF304
:1030C0006F8FFEE721690029F0D000F001FB002896
:1030D000ECD004494FF080500860BFF34F8FBFF32E
:1030E0006F8FE3E704ED00E02DE9FF4782B01D4656
:1030F0008A464FF00008040003D0BAF1000F08D050
:1031000011E0502080F31188BFF34F8FBFF36F8F12
:10311000FEE7206C38B1502080F31188BFF34F8F49
:10312000BFF36F8FFEE7022D0AD1E06B012807D0B5
:10313000502080F31188BFF34F8FBFF36F8FFEE7EE
:1031400000F00EFA3F4F4FF000094FF0805648B99B
:10315000049838B1502080F31188BFF34F8FBFF32C
:103160006F8FFEE7FFF7F2FCA06BE16B884207D39D
:10317000022D05D00498D0B1B8F1000F1AD01EE08E
:103180002A4651462046FFF73AF9616A19B104F11F
:10319000240000F09DFA20B13E60BFF34F8FBFF3D3
:1031A0006F8FFFF7F3FC012006B0BDE8F087FFF753
:1031B000EDFC22E06846FFF70BFE4FF00108FFF739
:1031C000E5FCFFF78BFEFFF7C1FC94F94400401CBF
:1031D00001D184F8449094F94500401C01D184F851
:1031E0004590FFF7D3FC04A9684600F027F930B1F9
:1031F0002046FFF79BFB00F0A3FA0020D4E7FFF77F
:10320000A5FCA06BE16B884213D1FFF7BFFC04F172
:1032100010000499FFF7EAFD2046FFF787FB00F056
:103220008FFA00289ED13E60BFF34F8FBFF36F8FA0
:1032300098E7FFF7ABFC2046FFF778FB00F080FA39
:1032400090E7000004ED00E02DE9F0471F469046AE
:103250008946040003D0B9F1000F08D011E05020D6
:1032600080F31188BFF34F8FBFF36F8FFEE7206CA1
:1032700038B1502080F31188BFF34F8FBFF36F8FA9
:10328000FEE7022F0AD1E06B012807D0502080F31F
:103290001188BFF34F8FBFF36F8FFEE7FFF7CAFCB4
:1032A0005020EFF3118680F31188BFF34F8FBFF3E7
:1032B0006F8FA06BE16B884206D3022F04D00020F1
:1032C00086F31188BDE8F08794F945503A4649469F
:1032D0002046FFF794F8681C04D06D1C84F8455014
:1032E0000120EDE7606A0028FAD004F1240000F024
:1032F000EFF90028F4D0B8F1000FF1D00121C8F89F
:103300000010EDE72DE9F747002683B08A46040058
:1033100003D0BAF1000F08D011E0502080F31188DB
:10332000BFF34F8FBFF36F8FFEE7206C38B1502093
:1033300080F31188BFF34F8FBFF36F8FFEE700F06C
:103340000FF9DFF8F4804FF000094FF0805748B9CB
:10335000059838B1502080F31188BFF34F8FBFF329
:103360006F8FFEE7FFF7F2FBA56BC5B15146204614
:10337000FFF732F86D1EA563206950B104F110000B
:1033800000F0A6F928B1C8F80070BFF34F8FBFF363
:103390006F8FFFF7FBFB012006B0BDE8F0870598B3
:1033A00008B11EB106E0FFF7F1FB27E06846FFF722
:1033B0000FFD0126FFF7EAFBFFF790FDFFF7C6FBC5
:1033C00094F94400401C01D184F8449094F94500DC
:1033D000401C01D184F84590FFF7D8FB05A9684649
:1033E00000F02CF8002820460AD0FFF79FFA00F0E2
:1033F000A7F92046FFF74CF90028B3D00020CBE70F
:10340000FFF746F990B104F124000599FFF7EEFCAF
:103410002046FFF78BFA00F093F90028A2D1C8F8F4
:103420000070BFF34F8FBFF36F8F9BE72046FFF70E
:103430007DFA00F085F995E704ED00E02DE9F04113
:103440000C46050011D0C4B1FFF780FB174B5A6939
:103450006E682068911B471C17D02F689B6A9F429B
:1034600019D0964217D8012410E0502080F311881B
:10347000BFF34F8FBFF36F8FFEE7502080F31188AB
:10348000BFF34F8FBFF36F8FFEE70024FFF77EFB84
:103490002046BDE8F081884205D9401A20602846C0
:1034A000FFF796FCF1E700202060DCE71800002021
:1034B0002DE9FF5F8346DDE90E87994616468A4669
:1034C0009000FFF769FA05001CD05C20FFF764FA52
:1034D000040014D00020256384F85900CDE902408F
:1034E000CDE900874B46324651465846FFF73FF834
:1034F0002046FEF7DDFE012004B0BDE8F09F28461F
:10350000FFF758FB4FF0FF30F6E7F0B585B0DDE987
:103510000B640A9DA6B1DCB15C27009726630226E6
:1035200084F85960002604AFCDE90246CDE9005782
:10353000FFF71DF82046FEF7BBFE049805B0F0BD6E
:10354000502080F31188BFF34F8FBFF36F8FFEE7DA
:10355000502080F31188BFF34F8FBFF36F8FFEE7CA
:103560000548C16919B1806B18B10020704701206E
:103570007047022070470000180000200148406991
:1035800070470000180000202DE9F0412E4C002764
:10359000A06B40B1206A401C2062606A00B1012724
:1035A0003846BDE8F0816669761C666113D16068B3
:1035B000006838B1502080F31188BFF34F8FBFF3FC
:1035C0006F8FFEE76068A1686160A060A06A401C20
:1035D000A062FFF72BF9206BDFF87080864209D3D9
:1035E0006068006880B16068C068C56868688642C5
:1035F0000DD220632068C06A00EB800158F82100DA
:103600000128CAD90127C8E74FF0FF30F1E7281D8C
:10361000FFF740FAA86A18B105F11800FFF73AFA67
:10362000E86AA169884200D9A06100EB800108EB3B
:103630008100291DFFF77EFAE86A2168C96A88427D
:10364000CED30127CCE700001800002000020020A4
:1036500070B504004FF0000133D01B4D2868844240
:1036600007D0502080F31188BFF34F8FBFF36F8FC7
:10367000FEE7206D38B1401E2065E36CE26A9A4295
:103680001FD040B11DE0502080F31188BFF34F8F51
:10369000BFF36F8FFEE7201DFFF7FCF9E06CE062DF
:1036A000C0F13800A061E06AA969884200D9A86128
:1036B000064900EB800001EB8000211DFFF73AFA7C
:1036C0000121084670BD0000180000200002002003
:1036D00070B5C068C46854B104F118000646FFF71D
:1036E000D9F9144DA86B50B13146134815E050205C
:1036F00080F31188BFF34F8FBFF36F8FFEE7201D5C
:10370000FFF7C8F9E06AA969884200D9A8610B49A6
:1037100000EB800001EB8000211DFFF70BFAE06A4F
:103720002968C96A884202D90120686270BD0020F8
:1037300070BD000018000020880600200002002054
:103740002DE9F0472C4D00242746A86B38B1FFF730
:10375000FDF9A86B401EA863A86B40B146E050205D
:1037600080F31188BFF34F8FBFF36F8FFEE7296996
:10377000224E0120D1B3A6F5916980463068E0B1B0
:10378000F068C46804F11800FFF784F9201DFFF702
:1037900081F9E06AA969884200D9A86100EB80013B
:1037A00009EB8100211DFFF7C5F9E06A2968C96AA4
:1037B0008842E3D3C5F82480E0E70CB1FFF736F880
:1037C0002C6A4CB14FEA0806FFF7DEFE00B16E62CC
:1037D000641EF9D100202862686A38B108490127BF
:1037E00038070860BFF34F8FBFF36F8FFFF7CEF935
:1037F0003846BDE8F0870000180000208806002049
:1038000004ED00E010B586B0FEF7BAFD114CA068DB
:10381000B8B100200390049005AA04A903A8FFF7FB
:1038200057F9DDE9032102208DE8070000230AA1F2
:103830000B48059AFFF769FEE06010B106B0012061
:1038400010BD502080F31188BFF34F8FBFF36F8FEF
:10385000FEE7000054000020546D72205376630090
:10386000092900082DE9FF411E46134602000A9D62
:103870004FF0000016D0144CA768002F0FD0CDE9F0
:1038800000130292062917DAFFF76AFE02284FF0AA
:1038900000030FD000226946A068FFF725FC04B0A2
:1038A000BDE8F081502080F31188BFF34F8FBFF344
:1038B0006F8FFEE72A46EEE7002332466946384618
:1038C000FFF7C2FCEBE70000540000204839000875
:1038D00000000000000000000000000000000000E8
:1038E00000020000180000000000000000000000BE
:1038F0004039000800000000000000000000000047
:10390000000000000002000018000000000000009D
:1039100000000000010202030405060708090A0B63
:103920000C0D0E0F1010000000000000000001023E
:103930000304060708090000000001020304000058
:103940006164635461736B0064656661756C745483
:1039500061736B00743900080000002094000000BF
:1039600028010008083A000894000020DC2000002C
:1039700044010008000000000000000001000000F9
:1039800010000000000000000024F400000000000F
:103990000000000000000000000000000000000027
:1039A0000000000000000000000000000000000017
:1039B0000000000000000000000000000000000007
:1039C00000000000000000000000000000000000F7
:1039D00000000000000000000000000000000000E7
:1039E00000000000000000000000000000000000D7
:1039F000000000000000000000000000AAAAAAAA1F
:083A00000000000000000000BE
:04000005080000ED02
:00000001FF
