:020000040800F2
:100000003026002021020008DB22000859210008C8
:10001000D9220008D5050008492600080000000084
:10002000000000000000000000000000890100083E
:100030001B06000800000000CD010008692400082C
:100040003B0200083B0200083B0200083B0200089C
:100050003B0200083B0200083B0200083B0200088C
:100060003B0200083B0200083B020008E5050008CF
:100070003B0200083B0200083B0200083B0200086C
:100080003B0200083B0200083B0200083B0200085C
:100090003D260008D90500083B0200083B02000885
:1000A0003B0200083B0200083B0200083B0200083C
:1000B0003B0200083B0200080D2500083B02000837
:1000C0003B0200083B0200083B0200083B0200081C
:1000D0003B0200083B0200083B0200083B0200080C
:1000E0003B0200083B0200083B02000800F002F857
:1000F00000F03AF80AA090E8000C82448344AAF188
:100100000107DA4501D100F02FF8AFF2090EBAE885
:100110000F0013F0010F18BFFB1A43F0010318473B
:10012000F03F000010400000103A24BF78C878C1AA
:10013000FAD8520724BF30C830C144BF04680C60ED
:10014000704700000023002400250026103A28BF35
:1001500078C1FBD8520728BF30C148BF0B60704739
:100160001FB51FBD10B510BD00F058F91146FFF7BF
:10017000F7FF02F00DFB00F076F903B4FFF7F2FF92
:1001800003BC00F07DF90000224B19680868B0E854
:10019000F00F80F30988BFF36F8F4FF0000080F3FA
:1001A00011884EF00D0E70470000000006480068F0
:1001B000006880F3088862B661B6BFF34F8FBFF363
:1001C0006F8F00DF00BF00BF08ED00E0EFF3098094
:1001D000BFF36F8F0F4B1A6820E9F00F106008B55E
:1001E0004FF0500080F31188BFF34F8FBFF36F8F34
:1001F00003F03AFA4FF0000080F31188BDE80840A0
:1002000019680868B0E8F00F80F30988BFF36F8FB2
:10021000704700BF2C000020EFF3058070470000FE
:100220000948804709480047FEE7FEE7FEE7FEE78A
:10023000FEE7FEE7FEE7FEE7FEE7FEE704480549C6
:10024000054A064B7047000009250008ED0000082C
:1002500030200020302600203022002030220020D4
:10026000B2F120030AD5C2F1200320FA02F001FA0C
:1002700003F321FA02F140EA0300704721FA03F088
:100280004FF000017047032A40F2308010F0030C59
:1002900000F0158011F8013BBCF1020F624498BFD9
:1002A00011F801CB00F8013B38BF11F8013BA2F176
:1002B000040298BF00F801CB38BF00F8013B11F0F1
:1002C000030300F05780083AC0F0088051F8043B5F
:1002D000083A51F804CBA0E80810F5E7121D5CBFFE
:1002E00051F8043B40F8043BAFF30080D20724BF31
:1002F00011F8013B11F801CB48BF11F8012B24BFC5
:1003000000F8013B00F801CB48BF00F8012B704713
:1003100002F0FF0343EA032242EA024200F05EB821
:100320004FF0000200B5134694469646203922BF8E
:10033000A0E80C50A0E80C50B1F12001BFF4F7AFD9
:10034000090728BFA0E80C5048BF0CC05DF804EBBB
:10035000890028BF40F8042B08BF704748BF20F829
:10036000022B11F0804F18BF00F8012B7047704727
:100370007047704710B5203AC0F00B80B1E81850B4
:10038000203AA0E81850B1E81850A0E81850BFF47F
:10039000F5AF5FEA027C24BFB1E81850A0E818501E
:1003A00044BF18C918C0BDE810405FEA827C24BF72
:1003B00051F8043B40F8043B08BF7047D20728BF00
:1003C00031F8023B48BF11F8012B28BF20F8023B4F
:1003D00048BF00F8012B70474FF000020429C0F01D
:1003E000128010F0030C3FF49DAFCCF1040CBCF173
:1003F000020F18BF00F8012BA8BF20F8022BA1EBB9
:100400000C01FFF78FBF5FEAC17C24BF00F8012B0E
:1004100000F8012B48BF00F8012B7047754600F02B
:100420002BF8AE4605006946534620F00700854686
:1004300018B020B5FFF702FFBDE820404FF00006DE
:100440004FF000074FF000084FF0000B21F00701BC
:10045000AC46ACE8C009ACE8C009ACE8C009ACE8FF
:10046000C0098D46704710B50446AFF300802046A2
:10047000BDE81040FFF781BE00487047CC1F002048
:1004800001491820ABBEFEE72600020070470000BD
:1004900070B5044600688168C943C90717D18168EF
:1004A00021F00101816001F0FDF805460AE000BF7E
:1004B00001F0F8F8401B022804D920688068C04386
:1004C000C00706D020688068C043C007F0D0002075
:1004D00070BDA06A40F01000A062E06A40F0010028
:1004E000E062012070BD10B50146406A826A12F0D8
:1004F000500F05D0006A026BBDE810400846104757
:10050000816A41F40071816201688968C1F34241E6
:1005100007290CD1017B51B9816A21F48071816274
:10052000816AC90403D4816A41F00101816200F04B
:100530006DF910BD10B5406A816A41F040018162D9
:10054000C16A41F00401C16200F062F910BD10B54A
:10055000406A00F05CF910BDF8B50026044600962C
:1005600000688168C943C9072DD0816841F0010145
:100570008160164816490068B0FBF1F000E0401EAB
:1005800000900028FBD101F08DF8054616E000BF71
:1005900001F088F8401B022810D920688068C04309
:1005A000C0070BD0A06A40F01000A062E06A40F0E3
:1005B0000100E06284F824600120F8BD20688068B2
:1005C000C043C007E4D10020F8BD0000280000208F
:1005D00040420F00FEE70000014800F0E9BB0000C8
:1005E000DC000020014800F0FFBD00008001002079
:1005F00030B590F840500124AC40C56B6C60046885
:1006000063604368102B036803D099600068C26080
:1006100030BD9A600068C16030BD704772B6FEE7B9
:10062000044B0022DA61044A136943F001031361A9
:100630000180704710020020002002401448002270
:10064000C168CB06134904D5CA6942F00202CA61E7
:100650001022C3685B0705D5CB6943F00103CB616A
:1006600042F00402C369DB0707D0CB6943F00403FF
:10067000CB61C16921F00101C161A2F5807101392D
:1006800001D0C2607047C16921F00101C1617047AA
:10069000002002401002002070B5054601F002F86B
:1006A0000646114C09E0681C07D025B100F0FAFF9E
:1006B000801BA84201D9032070BDE068C007F2D1B9
:1006C000E068800601D52020E060E068C00605D41F
:1006D000E069C00702D1E068400703D5FFF7AEFF2D
:1006E000012070BD002070BD00200240064A00219C
:1006F000D16106490A6942F002020A61486108694B
:1007000040F0400008617047801B0020002002403C
:10071000F8B50024009490F824202546012A12D030
:10072000012280F824204A681F23072A0DD2066878
:10073000776B521E02EB820293409F430B689340FB
:100740001F43776319E00220F8BD06680D2A0AD21C
:10075000376BD21F02EB820293409F430B6893409A
:100760001F43376309E0F76A0D3A02EB82029340B8
:100770009F430B6893401F43F7620A68072306688C
:100780000A2A0AD3F7680A3A02EB420293409F43CF
:100790008B6893401F43F76008E0376902EB420221
:1007A00093409F438B6893401F4337610A68102A28
:1007B00001D0112A20D1124B02689A4217D19368B6
:1007C0001B0219D4936843F400039360096810294D
:1007D00012D10C490C4A0968B1FBF2F101EB81011D
:1007E000490000E0491E00910029FBD104E0816A24
:1007F00041F020018162012480F824502046F8BD98
:10080000002401402800002040420F00704770473C
:10081000704700002DE9F0414FF0000704003D460D
:100820007ED0A06A002628B9E66284F824602046BB
:1008300000F07EF82046FFF72BFEA16A01F01001C0
:10084000014304D0A06A40F01000A06268E0A16AF1
:1008500021F4885141F00201A1626268E169237BC1
:100860000A4347EA43010A43A1684FF48077B9423B
:1008700008D0012906D0002194F814C0BCF1010F62
:1008800002D00AE03946F7E7F3B1A36A43F0200348
:10089000A362E36A43F00103E3622368D3F804C070
:1008A0002CF4694C4CEA010CC3F804C02368996825
:1008B000DFF870C001EA0C0111439960A168B942E8
:1008C0000BD0012909D00CE0DFF85CC0A3690CEB68
:1008D00043330B4343F40061DFE7218A0D05A5F59F
:1008E00080152168CB6A23F470032B43CB62216807
:1008F00089680E4B1940914208D1E662A16A21F045
:10090000020141F00101A162BDE8F081A06A20F07E
:10091000020040F01000A062E06A40F00100E062D6
:100920000120F1E7FDF7E1FF00E0FFFFFE0E1FFFF2
:1009300070B586B000250646009501950295039591
:100940000068214988423CD12049886940F4007000
:100950008861886900F400700490886940F00400A0
:100960008861886900F004000490886940F00800FC
:1009700088618869032400F008000490FF20CDE915
:1009800000046946124800F09DFD00946946114834
:10099000019400F097FD114C0F48C4E90005802038
:1009A000C4E9025040002061800060612020C4E959
:1009B0000605204600F0C2FC08B1FFF72FFE3462A6
:1009C000666206B070BD00000024014000100240C5
:1009D00000080140000C0140080002408001002096
:1009E0002DE9F047894604463B4900683B4F0E1D00
:1009F0009046884201D0B84207D1306810F4702F79
:100A000003D001252846BDE8F08794F8240001288A
:100A10000CD0012084F824002046FFF79DFD05003E
:100A20004FF0000004D084F82400EBE70220EAE74E
:100A3000A16A40F60162914341F48071A16221688C
:100A4000B94218D1326812F4702F14D0A16A41F45F
:100A50008011A1623168490505D5A16A21F40051D0
:100A600041F48051A162A16AC9040AD5E16A21F06A
:100A70000601E16206E0A26A22F48012A2624968DD
:100A8000E9E7E06284F82400216A15488862216A57
:100A90001448C862216A1448086321686FF0020094
:100AA00008602068816841F4807181602168434654
:100AB0004A464C31206A00F06FFC20688168C1F31F
:100AC00042410729816803D041F48011816099E790
:100AD00041F4A001FAE70000002401400028014091
:100AE000E70400084F0500083505000890F82020AD
:100AF000012A07D0022A05D0416A41F480214162CF
:100B000001207047006842690A4342610020704733
:100B1000F0B590F820500468A468012D05D0022D8E
:100B200003D0416A41F480214DE014F0406F01D1BF
:100B3000E50045D5C4F301640125A5401D608D681D
:100B40004FF4C0739DB1CE6835434E6845EAC60583
:100B5000066803EB0417F5514FF4C275076805EBFF
:100B600004150E697E51097D012905D009E00E8822
:100B7000CD6845EA4655EBE701684E5946F4807664
:100B80004E511179D2F805504FF4C67641EA05214D
:100B9000056806EB0416A9511178D2F801204FF42C
:100BA000C47541EA0221026805EB04155151006841
:100BB00003EB0411425842F0010242500020F0BD04
:100BC000416A41F4001141620120F0BD10B590F876
:100BD00020300268012B07D0022B05D0416A41F476
:100BE00080214162012010BDD2F8000240F00100D6
:100BF000C2F80002087D00F01F0301209840D2F8DF
:100C00001C328343C2F81C32CB69B3B9D2F80C3220
:100C10008343C2F80C328C894B6864F31F434C69E0
:100C200002EBC404C4F840320C890B6864F31F4320
:100C30004C6902EBC404C4F84432CB69012B16D1D1
:100C4000D2F80C320343C2F80C320C884B6864F3C0
:100C50001F434C6902EBC404C4F840320C89CB68D2
:100C600064F31F434C6902EBC404C4F844328B693B
:100C7000002BD2F804320FD053EA0003C2F804323A
:100C80000B69002BD2F8143208D00343C2F8143297
:100C9000096A012904D008E08343EFE78343F5E7BD
:100CA000D2F81C120143C2F81C12D2F8000220F044
:100CB0000100C2F80002002010BD704770B590F826
:100CC0002040012C05D0022C03D0416A41F4802140
:100CD00028E0046809B32469A40720D04FF4D8742D
:100CE000056804EB01142D5915F00405956005689D
:100CF0002D591AD0ED08556005682C5904F00204EE
:100D0000D4604FF4DA74056804EB01142E5906F030
:100D10000F06082E0CD308250DE0E468DCE7416AD5
:100D200041F400114162012070BD6D0D1560E3E7D3
:100D30002D5905F00F05156105682D59C5F30725D7
:100D4000956105682C59240C54614FF4DC720468D9
:100D500002EB0112A4581C700468A458240A5C70A9
:100D60000468A458240C9C700468A258120EDA700F
:100D70004FF4DE72046802EB0112A4581C7104687F
:100D8000A458240A5C710468A458240C9C7104685B
:100D9000A258120EDA71006829B1016941F02001F0
:100DA0000161002070BDC16841F02001C160F8E719
:100DB0002DE9F05F0546006800244669D0F80490EC
:100DC0008768D0F80CB0D0F810A0D0F81880F107E0
:100DD00048D0F90714D001218160B80703D528460F
:100DE00000F0FBF90CE0780702D54FF4006407E04F
:100DF000380702D54FF4805402E0284600F0ECF9A1
:100E0000F80516D529684FF480708860B80503D5B9
:100E1000284600F0E4F90CE0780502D544F40054CB
:100E200007E0380502D544F4804402E0284600F08B
:100E3000D5F9F80316D529684FF480308860B803D7
:100E400003D5284600F0CDF90CE0780302D544F430
:100E5000004407E0380302D544F4803402E0284619
:100E600000F0BEF9300707D55FEACB6004D52968EA
:100E7000102044F40074C86070074FF0080707D5CD
:100E80005FEA0B7004D52868C760284600F062F955
:100E9000B00706D52868C068800702D0284600F051
:100EA0005BF9700607D55FEACA6004D5296810208F
:100EB00044F480640861B00607D55FEA0A7004D57F
:100EC00028680761284600F057F9F00606D528681B
:100ED0000069800702D0284600F04FF9B00308D51A
:100EE0005FEAC96005D5296810204860284600F0EF
:100EF00045F9F00307D55FEA097004D52868476013
:100F0000284600F06FF9300446D55FEA497040D5B5
:100F1000F00504D55FEAC87001D044F00104B005C3
:100F200004D55FEA887001D544F00204700504D549
:100F30005FEA487001D544F00404300529D518F063
:100F4000700F26D008F07000402815D006DC10285D
:100F500009D020280AD0302816D10AE050280ED017
:100F6000602811D10EE044F008040DE044F01004B4
:100F70000AE044F0200407E044F0400404E044F0B8
:100F8000800401E044F480742868816921F07001D4
:100F90008161296804204860002C05D0686A2043DC
:100FA00068622846FFF789FEBDE8F09F70B504002F
:100FB00003D094F8200010B104E0012070BD204659
:100FC00000F082F82068016841F00101016000F042
:100FD00069FB0546052604E000F064FB401B0A2877
:100FE00011D820684068C007F6D02068016821F059
:100FF0000201016000F056FB05460BE000F052FBD9
:10100000401B0A2806D9606A40F40030606284F808
:101010002060D2E7206840688007EFD4207E012856
:10102000206801683DD021F080010160607E0128C8
:101030002068016838D021F040010160A07E0128BD
:101040002068016833D021F020010160E07E012892
:10105000206801682ED041F010010160207F012836
:101060002068016829D021F008010160607F012813
:101070002068016824D021F004010160D4E9020154
:101080000843D4E90412114308436168491E084328
:101090002168C86100206062012084F820000020DF
:1010A00070BD41F08001C0E741F04001C5E741F06B
:1010B0002001CAE721F01001CFE741F00801D4E791
:1010C00041F00401D9E7000010B586B0002100917D
:1010D00001910291039100681B49884232D11B485B
:1010E000C16941F00071C161C16901F000710491F1
:1010F000816941F0040181618069154C00F00400B0
:1011000004904FF4006000906946204600F0DAF940
:10111000A01400900220019003200390694620460D
:1011200000F0D0F900220521142000F059FB142012
:1011300000F048FB00220521152000F051FB15208E
:1011400000F040FB06B010BD0064004000100240FB
:101150000008014070470000044A0168914204D130
:10116000034B044A0021FFF7A9BD7047006400400B
:101170001400002064010020704770477047000091
:1011800070B5044690F82000012804D0606A40F44D
:101190000020606218E0022084F8200020680168C6
:1011A00021F00101016000F07DFA05460EE000BF6C
:1011B00000F078FA401B0A2808D9606A40F4003031
:1011C0006062052084F82000012070BD206840681E
:1011D000C007EDD1606270BD7047704770477047BF
:1011E00070477047704700002DE9F05FC16B0C68D5
:1011F00001680B68D0F840C0042202FA0CF2494D95
:10120000DFF824A1494E4A4FDFF828B1DFF828E182
:1012100022422CD05A072AD50A68920603D40A68BB
:1012200022F004020A600168A94201D1042219E0F7
:10123000514501D1402215E0B14202D14FF4806204
:1012400010E0B94202D14FF480420BE0594502D17F
:101250004FF4802206E0714502D14FF4800201E094
:101260004FF080622F4908394A60C16A3BE04FF075
:10127000020808FA0CF818EA040F4FF000094FF0C2
:10128000010235D05FEA837832D50B689B0605D41E
:101290000B6823F00A030B6080F821200168A94243
:1012A00001D1022219E0514501D1202215E0B142BD
:1012B00002D14FF4007210E0B94202D14FF4005253
:1012C0000BE0594502D14FF4003206E0714502D1DE
:1012D0004FF4001201E04FF00072124908394A60E1
:1012E00080F82090816A00291AD0BDE8F05F084795
:1012F000082505FA0CF5254212D01B0710D50B68FE
:1013000023F00E030B6090F84010C36B02FA01F15A
:101310005960826380F8212080F82090016BE2E719
:10132000BDE8F09F080002401C000240300002406F
:1013300044000240580002406C00024030B528B31F
:1013400008C8134914221944B1FBF2F18900C163A2
:1013500010498163022141771A6843F6F0718A438C
:10136000D0E900142143D0E902452C43214304690C
:1013700021434469214384692143114319600021B9
:101380004163012242770177084630BD012030BD1C
:10139000F8FFFDBF0000024070B5044690F8200041
:1013A000002501280CD0012084F8200094F8216049
:1013B0000020012E06D084F820000225284670BDAA
:1013C000022070BD022684F82160A06320680668B0
:1013D00026F0010606602046FFF70AF9E06A0028B9
:1013E0002068016802D041F00E0106E021F00401FE
:1013F00001602068016841F00A010160206801680D
:1014000041F001010160D9E70348016941F0800121
:101410000161002070470000002002402DE9F05FCC
:1014200007461C4888460024017E15461E460129B1
:1014300009D00121814601764CF2503A5046FFF71F
:101440002BF918B122E00220BDE8F09F012F02D055
:10145000022F00D00427D346DFF83CA02201284603
:101460003146FEF7FDFE81B208EB4400FFF7D8F8E5
:101470005846FFF711F9DAF8102022F00102CAF8F5
:10148000102018B9641CE4B2BC42E7D3002289F8EA
:101490001820D9E710020020002002400649002051
:1014A0000A69120607D5054A4A60054A4A60096971
:1014B000090600D50120704700200240230167453E
:1014C000AB89EFCD2DE9F84FDFF8B8910024A9F1F1
:1014D000040B23460F2709F1040AABF1040EC9E0FF
:1014E0000125A5402A40AA427DD1674ED1F804C00B
:1014F000ACEB0608B44532D014DCBCF1030F3AD093
:1015000009DCBCF1000F2AD0BCF1010F1CD0BCF1EA
:10151000020F31D11DE0BCF1110F17D0BCF1120F39
:101520002AD119E0B8F5881F19D006DCB8F5803F3C
:1015300015D0B8F5801F1FD111E0B8F5001F0ED0EF
:10154000B8F5041F18D10AE0CB6815E0CB681B1D65
:1015500012E0CB6808330FE0CB680C330CE08B68EB
:101560002BB1012B4FF0080303D0456104E00423A5
:1015700002E0056100E00023FF2A01D8064601E0F1
:1015800000F104064FEA840501D9A5F12005D6F83B
:10159000008007FA05FC28EA0C0803FA05F548EA7A
:1015A0000508C6F800804D68ED0062D5374DAE697C
:1015B00046F00106AE61AD6924F0030605F00105B1
:1015C0000095334D06EB050CDCF80850A607360FE6
:1015D00007FA06F825EA0805DFF8B880404503D188
:1015E0004FF0000817E044E0DFF8AC80404502D13E
:1015F0004FF001080FE0DFF8A480404502D14FF022
:10160000020808E0DFF89880404502D14FF0030857
:1016100001E04FF0040808FA06F848EA0508CCF89B
:1016200008804D68D9F80060ED024D4601D516439B
:1016300000E096432E604D68DAF80060AD02554632
:1016400001D5164300E096432E604D68DBF800603C
:10165000AD035D4601D5164300E096432E604D680C
:10166000DEF80060ED03754601D5164300E09643B1
:101670002E60641C0D682A46E5407FF431AFBDE85A
:10168000F88F000008040140000011100010024013
:101690000000014000080140000C01400010014022
:1016A0000014014001488068704700001C000020C1
:1016B0000248816802781144816070471C00002054
:1016C000074810B5016841F010010160032000F0E7
:1016D000A7F80F2000F006F800F050F8002010BD29
:1016E0000020024030B505461F4887B0C16941F06F
:1016F0000401C161C06906A900F00400009001A8BE
:1017000000F0ACF90498B0B100F0C8F940001749F6
:10171000174AB0FBF1F11748491E0260416040F2E0
:10172000E7320021C0E903218160816100F08EFB76
:10173000040003D015E000F0B1F9E8E70D4800F02F
:10174000B3FB04000DD11E2000F03CF8102D07D291
:10175000002229461E2000F043F80748056000E0FB
:10176000012407B0204630BD0010024040420F0067
:1017700000080040C4010020200000200F4808B5E8
:10178000816941F001018161816901F001010091EC
:10179000C16941F08051C161C069002200F08050F0
:1017A00000900F21901E00F01BF80548416821F0C1
:1017B000E06141F00071416008BD0000001002408E
:1017C00000000140002809DB00F01F0201219140C8
:1017D0004009800000F1E020C0F8001170470000CF
:1017E000F0B40E4B1B680C46C3F30223C3F107058C
:1017F000042D00D90425191D072901D2002300E07A
:10180000DB1E012606FA05F1491E214099409E4043
:10181000761E16403143F0BC00F017BF0CED00E01F
:10182000064900F0070208684FF6FF03184040EA37
:101830000220034A10430860704700000CED00E0EE
:101840000000FA052DE9F84305460078354CC0073D
:1018500054D0E0690026C00008D4E06940F0805010
:10186000E061E069012600F0805000902E48016898
:10187000C90512D40168804641F480710160FFF708
:1018800011FF074605E000BFFFF70CFFC01B6428EF
:1018900023D8D8F80000C005F6D5206A10F44070AF
:1018A00021D0A98801F4407181421CD0206A1F49CF
:1018B000012220F440700A6000220A602062C00702
:1018C00011D0FFF7EFFE074641F2883808E000BF6D
:1018D000FFF7E8FEC11B414502D90320BDE8F883AC
:1018E000206A8007F4D5206A696820F440700843B4
:1018F00020621EB1E06920F08050E0612878800706
:1019000005D56068A96820F44040084360602878E5
:10191000C00605D56068E96820F48000084360606F
:101920000020DBE70010024000700040400442420B
:101930002DE9F0470F46050061D0434E306800F0B6
:101940000700B84209D2306820F007003843306001
:10195000306800F00700B84251D128683B4C81073D
:1019600012D5400703D5606840F4E06060602878D5
:10197000000703D5606840F4605060606068A96843
:1019800020F0F000084360602878C00728D068681D
:10199000012810D02168022810D0890700292EDAEA
:1019A000616821F0030101436160FFF77BFE80461F
:1019B00041F288390DE021688903EFE78901EDE7FD
:1019C000FFF770FEA0EB0801494502D90320BDE8EE
:1019D000F0876068696800F00C00B0EB810FEFD110
:1019E000306800F00700B8420BD9306820F00700DB
:1019F00038433060306800F00700B84201D0012061
:101A0000E5E72878400705D56068E96820F4E060DC
:101A1000084360602878000706D56068296920F4CB
:101A2000605040EAC100606000F058F86168084A00
:101A3000C1F30311515CC8400649086006480068BC
:101A4000FFF750FE0020C2E70020024000100240D5
:101A5000C640000828000020200000200F2202605D
:101A60000C4A536803F003034360536803F0F00328
:101A70008360536803F4E063C36052684FF4E0632B
:101A800003EAD20202610448006800F0070008601F
:101A90007047000000100240002002400448054941
:101AA00000684968044AC1F30221515CC84070478C
:101AB0002800002000100240D640000804480549D4
:101AC00000684968044AC1F3C221515CC8407047AC
:101AD0002800002000100240D64000080E4A51683D
:101AE0000E4801F00C03042B11D0082B0FD10C4829
:101AF000C1F38343C903C05C0AD55168084AC1F3E6
:101B00004041921E515C054A5043B0FBF1F07047D2
:101B100004494843704700000010024000127A0058
:101B2000B640000800093D002DE9F84F040070D0D0
:101B30002078C04DC00749D06868C0F381000128F3
:101B400007D06868C0F38100022809D16868C00323
:101B500006D52868800339D560680028E7D035E0CD
:101B60006068B0F5803F0BD010B1B0F5A02F11D058
:101B7000286820F480302860286820F4802002E063
:101B8000286840F480302860606890B1FFF78AFDD3
:101B900006460AE0286840F480202860F0E700BF8D
:101BA000FFF780FD801B642873D828688003F7D571
:101BB0000CE0FFF777FD064605E000BFFFF772FD7A
:101BC000801B6428F0D828688003F7D420789A4EC8
:101BD00080074FF001094FF0000839D5686810F010
:101BE0000C0F07D06868C0F38100022809D168682B
:101BF000C00306D42868800714D52069012808D1BD
:101C000010E02069B0B1C6F80090FFF74BFD074621
:101C100005E00AE1FFF746FDC01B0228C4D828688A
:101C20008007F7D52868616920F0F80040EAC10014
:101C300028600DE0C6F80080FFF734FD074604E099
:101C4000FFF730FDC01B022823D828688007F7D48F
:101C5000207800072CD57948A169D9B1C0F8009047
:101C6000FFF720FD074604E0FFF71CFDC01B02281C
:101C70000FD8686A8007F7D571484FF4FA510068A9
:101C8000B0FBF1F0009000BF0098411E0091FAD225
:101C90000EE080E0C0F80080FFF704FD074604E096
:101CA000FFF700FDC01B022875D8686A8007F7D4CB
:101CB0002078400760D5E8690027C00008D4E869AB
:101CC00040F08050E861E869012700F08050009002
:101CD0005C480168C90513D40168834641F48071EA
:101CE0000160FFF7DFFC824606E000BFFFF7DAFC89
:101CF000A0EB0A0064284ED8DBF80000C005F5D53B
:101D0000E06801280AD008B1052813D0286A20F01D
:101D100001002862286A20F0040002E0286A40F0EE
:101D200001002862E06841F2883B98B1FFF7BAFCF5
:101D300082460BE0286A40F004002862EEE700BF0C
:101D4000FFF7B0FCA0EB0A0159455AD8286A800772
:101D5000F6D50CE0FFF7A6FC824605E0FFF7A2FCF3
:101D6000A0EB0A0159454CD8286A8007F6D41FB168
:101D7000E86920F08050E861E06988B36968C1F3E0
:101D80008101022944D00228C6F8608004D0FFF700
:101D900089FC044638E034E0FFF784FC074604E0A1
:101DA000FFF780FCC01B02282BD828688001F7D4DD
:101DB000206AB0F5803F05D16868A16820F4003042
:101DC00008436860D4E908010843696821F4741184
:101DD00008436860C6F86090FFF764FC044606E0BC
:101DE00025E000BFFFF75EFC001B022809D8286829
:101DF0008001F7D51BE000BFFFF754FC001B022851
:101E000002D90320BDE8F88F28688001F4D40EE0E1
:101E10000128F7D06868226A00F48031914204D129
:101E2000616A00F47010884201D00120EAE70020C6
:101E3000E8E70000001002400000424280044242F5
:101E400028000020007000407047704710B5040063
:101E500003D094F83D0010B107E0012010BD002030
:101E600084F83C00204600F01EF8022084F83D0073
:101E7000211D206800F050FB012084F8460084F802
:101E80003E0084F83F0084F8400084F8410084F864
:101E9000420084F8430084F8440084F8450084F844
:101EA0003D00002010BD704790F83D10012901D081
:101EB00001207047022180F83D100168CA6842F095
:101EC0000102CA6000680B49884208D0B0F1804F17
:101ED00005D00949884202D00849884204D1816866
:101EE00001F00701062903D0016841F001010160FA
:101EF00000207047002C0140000400400008004012
:101F0000704770B50446006801694FF00005C94389
:101F1000890715D4C168C943890711D4E91E016135
:101F200001202077206880698007204602D0FFF7D3
:101F3000E7FF04E000F098F8204600F096F82577D7
:101F400020680169C943490717D4C168C9434907D3
:101F500013D46FF0040101610220207720688069AA
:101F600010F4407F204602D0FFF7CAFF04E000F0E3
:101F70007BF8204600F079F8257720680169C9438D
:101F8000090716D4C168C943090712D46FF00801C4
:101F90000161042020772068C0698007204602D0B4
:101FA000FFF7AEFF04E000F05FF8204600F05DF8B8
:101FB000257720680169C943C90617D4C168C94398
:101FC000C90613D46FF01001016108202077206842
:101FD000C06910F4407F204602D0FFF791FF04E073
:101FE00000F042F8204600F040F8257720680169AB
:101FF000C943C90708D1C168C943C90704D1891EAB
:102000000161204600F032F820680169C9430906E1
:1020100009D4C168C943090605D46FF08001016184
:102020002046FFF711FF20680169C943490609D41A
:10203000C168C943490605D46FF0400101612046DB
:1020400000F01EF820680169C94389060BD4C168F5
:10205000C943890607D46FF0200101612046BDE81D
:102060007040FFF7F2BE70BD7047704700680349CB
:10207000884201D1FFF71CBB7047000000080040F8
:10208000704770B5040004D094F84100002510B1E9
:1020900006E0012070BD84F84050204600F024F88E
:1020A000242084F841002068C16821F40051C160F7
:1020B000204600F067FA2068016921F4904101612F
:1020C0002068416921F02A0141612068C16841F41A
:1020D0000051C1606564202084F8410084F842000A
:1020E0006563002070BD000030B585B00024009409
:1020F00001940294039400681449884224D114483E
:10210000816941F480418161816901F480410491D8
:10211000816941F00401816180690E4D00F0040085
:1021200004904FF40070009002200190032003906F
:1021300069462846FFF7C6F92815CDE90004694627
:1021400028460294FFF7BEF905B030BD00380140C3
:102150000010024000080140FEE70000FEB5002428
:102160003E48009401943C490294016089158160C5
:102170000125057304750A2606614FF46021446049
:10218000C161FEF747FB08B172B6FEE7CDE9004535
:10219000694632480294FEF7BBFA08B172B6FEE710
:1021A0000224CDE9005469462C48FEF7B1FA08B183
:1021B00072B6FEE700940324694628480194FEF7AE
:1021C000A7FA08B172B6FEE70094042469462348D2
:1021D0000194FEF79DFA08B172B6FEE7009405245B
:1021E00069461E480194FEF793FA08B172B6FEE7FD
:1021F00000940624694619480194FEF789FA08B14B
:1022000072B6FEE700940724694614480194FEF76D
:102210007FFA08B172B6FEE70094082469460F48B9
:102220000194FEF775FA08B172B6FEE7009409242E
:1022300069460A480194FEF76BFA08B172B6FEE7E8
:10224000CDE9004669460548FEF762FA002801D04C
:1022500072B6FEE7FEBD000000240140AC00002085
:1022600030B51C488BB01A49016004210024C0E934
:102270000114C460046144610476012545768576C5
:10228000C47604774477FEF791FE08B172B6FEE794
:10229000CDE90645089505940494009401940294B0
:1022A00069460C480394FEF791FC08B172B6FEE74C
:1022B0000848FEF765FF08B172B6FEE7022105483F
:1022C000FEF714FC002801D072B6FEE70BB030BD5B
:1022D00000640040DC000020FEE7FEE710B50023AC
:1022E00006E000BF30F8024B21F813405B1C9BB2A4
:1022F0009342F7D310BD00002DE9F05FA0F1006418
:1023000015468A468346B4F5803F5FD2FFF7C6F88C
:10231000A70AC4F34806C6F50074A54200D82C46A7
:10232000DFF8AC904FF0006000EB872080464FF460
:1023300000722749FFF7D2FF00204FF6FF7106E039
:10234000331839F813208A4203D1401C80B2A042CE
:10235000F6D3A0422ED24046FEF7C8F94CF25030D8
:10236000FEF79AF91B48016921F002010161002082
:10237000494606E03AF810208319401C21F8132042
:1023800080B2A042F6D3124940464FF4007200BF1B
:1023900000F022F8A54215D0281B0AEB440A0BEBEB
:1023A000440B002685B24FF400747F1CA542B9D8B7
:1023B0002C46B7E74CF25030FEF76EF922465146F4
:1023C0005846E5E7BDE8F05FFFF71EB8BDE8F09FAF
:1023D000A01B0020002002402DE9F04116460F46C8
:1023E000054600240AE000BF37F8142000232946E0
:1023F0000120FFF713F8641CA4B2AD1CB442F3D360
:10240000BDE8F08170B5144D022212492846FFF74D
:1024100065FF104CA41E6188A1F57F40FF3812D0E3
:1024200021800E4A00210E4800F066FA0B4AE06057
:10243000243200210B4800F05FFA2061BDE87040B3
:10244000002001F03BB803490222891E2846FFF70D
:1024500053FFE6E70200002000F800086C40000887
:102460006D2600081127000810B5502080F3118850
:10247000BFF34F8FBFF36F8F01F044FC18B10449D5
:102480004FF080500860002080F3118810BD0000DC
:1024900004ED00E030B593B028216846FDF740FF19
:1024A00014210AA8FDF73CFF002401210F94109489
:1024B0000804CDE9001011941294029402250491AD
:1024C000CDE90750800009906846FFF72DFB08B161
:1024D00072B6FEE70F20CDE90A054FF48060CDE922
:1024E0000C4000210AA80E94FFF722FA08B172B638
:1024F000FEE70FA80F951194FFF7A4F9002801D06B
:1025000072B6FEE713B030BD704700000148FFF718
:10251000F8BC0000C4010020F0B50268164B174C4F
:10252000174D4FF08047984205D0B84203D0A042E3
:1025300001D0A84203D122F070064A683243984283
:1025400005D0B84203D0A04201D0A84203D122F462
:102550004074CA6822434C6922F080022243026020
:102560008A68C2620A688262984201D1096901637D
:1025700001214161F0BD0000002C01400004004039
:102580000008004070B5044600680169E26821F463
:102590004051114301612169A06808436169084302
:1025A0002168CA6841F20C639A430243CA602068FA
:1025B0004169A26921F44071114341611E492068BB
:1025C000884202D1FFF77AFA01E0FFF767FA00EBE1
:1025D000C00101EB0012606864218000B2FBF0F3DF
:1025E000B3FBF1F36FF018067343B2FBF0F5B2FBE7
:1025F000F0F605EB8305322303EB0515B5FBF1F58A
:10260000B6FBF1F605F0F00505EB0615B2FBF0F6AA
:10261000B2FBF0F0B0FBF1F06FF01802504306EBA4
:10262000800003EB0010B0FBF1F0216800F00F0018
:102630002844886070BD0000003801400148FEF762
:10264000B7BB0000DC000020FEE70907090E0028E8
:1026500004DB00F1E02080F80014704700F00F0068
:1026600000F1E02080F8141D704700001E221F4971
:102670001F48FEF7B5F908B1FDF7D0FF1B4E002546
:102680001C4C3C3E2580208846F82050401C80B2DF
:1026900020800A28F7D3154A25804FF00A0C20889D
:1026A000B0FBFCF10CFB1101618032F8107056F8A0
:1026B0002130401C3B4480B246F8213020801E2847
:1026C000EDD30A4A03232580143A208856F82010B7
:1026D000B1FBF3F122F81010401C80B220800A28D0
:1026E000F3D30A2000F0B2F8CCE70000401B002032
:1026F000AC000020A400002003490222088001460B
:102700000248FFF7F9BD00000000002000F80008B3
:102710001B4E1C4FDFF870901C4D4FF00108012438
:1027200040F6B83A305D298837F810000A2808FAD0
:1027300004F00CD90843288001F0DEFA59F824107F
:10274000411A514509D92046FFF7D6FF05E08143DC
:10275000298001F0D1FA49F82400641CE4B20B2C62
:10276000E0D30A492888891C020A0A704870074881
:102770000221801C00F032FD0A2000F067F8CEE74D
:10278000DE4000082C1B0020A01F0020A800002015
:1027900008B5FEF795FFFFF77DFE2648816941F0F9
:1027A00020018161816901F020010091816941F07E
:1027B00004018161816901F004010091816941F0A6
:1027C00008018161816901F008010091416941F0CE
:1027D000010141614069002200F0010000900521E3
:1027E0000B20FEF7FDFF0B20FEF7ECFFFFF7B6FC1A
:1027F000FFF736FD114810490C2201604FF4E1311A
:10280000416000218160C160C0E904128161C16141
:10281000FFF737FC08B172B6FEE700F031F8084A5E
:102820000021084800F068F80749886000F044F883
:10283000FEE70000001002400038014004010020C3
:1028400048400008052400080000002010B5EFF300
:10285000058149B9EFF3108131B9084909680229A6
:1028600005D1EFF3118111B16FF0050403E00024ED
:1028700008B100F0FDFD204610BD00007C000020E6
:10288000EFF3058058B9EFF3108040B909490868A3
:10289000022801D030B109E0EFF3118030B16FF0C0
:1028A0000500704701200860002070474FF0FF309E
:1028B000704700007C00002010B5EFF3058060B980
:1028C000EFF3108048B90B490868022802D00128AC
:1028D00006D00BE0EFF3118040B16FF0050010BDA2
:1028E0000220086000F074FE002010BD4FF0FF30A1
:1028F00010BD00007C000020F0B585B04FEA010358
:102900004FF00004EFF305810394A1BBEFF31081B6
:1029100089BB21490968022902D1EFF3118151BB1A
:1029200048B3802618218DF8104004AD42B31768D3
:1029300007B13D4697691FB139467F1E382F02D235
:102940001779FF0702D0002005B0F0BD576907B125
:10295000BE08D2F808C0BCF1000F0DD0D4685C2CC2
:1029600018D312693AB137B18DE8061032462946BC
:1029700001F089F903900DE0D7685FB912694AB98F
:1029800003AACDE90012B2B2294601F04FF901289D
:1029900000D003940398D7E77C0000202DE9F04194
:1029A000134C0F46054666692068001D00F030FC98
:1029B000681C07D137B12168BDE8F0410D48091DF9
:1029C00000F076BC20683544B5424560216805D2E8
:1029D000A068BDE8F041091D00F052BC6068091D07
:1029E00000F04EFC206B854200D22563BDE8F081EB
:1029F0002C000020200700202DE9F041054600F0C2
:102A000063FC2D4C2069401C206120682B4F10B1C5
:102A1000E06930B32BE025602069012827D100262A
:102A200006EB860007EB800000F01CFC761C382EBD
:102A3000F6D3234800F016FC2148143000F012FCB5
:102A40001F48283000F00EFC1D483C3000F00AFC06
:102A50001B48503000F006FC194860601430A0603C
:102A600005E02068E96AC06A884200D82560E06A0B
:102A7000401CE0626864E86AA169884200D9A061EC
:102A800000EB800007EB8000291D00F011FC00F036
:102A90003BFCE06900280CD02068E96AC06A8842E3
:102AA00007D208494FF080500860BFF34F8FBFF343
:102AB0006F8FBDE8F08100002C0000207002002024
:102AC000D006002004ED00E038B500F0FDFB104C0E
:102AD000A068C8B90F4800F0C5FB0E48143000F0DC
:102AE000C1FB0C482060143060600A4B0020283382
:102AF000009003F1500210210A2000F03BFEA0607C
:102B000010B105A100F07EFCBDE8384000F0FCBB30
:102B10006800002034070020546D7251000000004E
:102B200030B4026C0B46002A0BD0C1681144C1605E
:102B30004468A14201D30168C16030BC1846FDF76A
:102B4000A2BB30BC70472DE9F041856B17460446A7
:102B50000026026C82B1C7B1E068FDF794FBE16822
:102B6000206C091AE1602268914202D26168081A59
:102B7000E060022F16D017E02068A8B9606801F065
:102B800025F90646002060600EE0A068FDF77BFB9B
:102B9000216CA0680844A0606168884204D3206862
:102BA000A06001E005B16D1E6D1CA5633046BDE857
:102BB000F08110B5044690F8590058B101280CD0A6
:102BC00002280FD0502080F31188BFF34F8FBFF33E
:102BD0006F8FFEE7206B00F0ABFB2046BDE8104096
:102BE00000F0A6BB10BD000010484FF44061420742
:102BF00006D0C01D0D4920F00700411AC1F5406103
:102C00000B4A00230144C2E900030839103A21F0BD
:102C1000070111604B600B600B1AC0E90013936051
:102C20004FF000405360D06070470000040F002058
:102C300090000020144E154CA6F29C474FF080588F
:102C4000DFF84C9012E000BF00F03EFBF068C56872
:102C5000281D00F0DDFA2069401E2061E068401E5A
:102C6000E06000F051FB2846FFF7A3FFE068002872
:102C7000EAD138680128F9D9C9F80080BFF34F8F2D
:102C8000BFF36F8FF2E700000C0700202C0000203C
:102C900004ED00E070B51D46049C51B1C4F800205D
:102CA000C4E90F010121204600F098FD84F84C5042
:102CB00070BD2460F4E72DE9F0470E46DDE9098494
:102CC0001746824691009946089DA522206BFDF784
:102CD0001FFB6FF00301206B01EB8701084420F01C
:102CE0000707780707D0502080F31188BFF34F8F74
:102CF000BFF36F8FFEE72218315C82F83410315C2D
:102D000011B1401C1028F6D3002684F84360382DFA
:102D100000D33725E562C4E91356201D00F0ADFA53
:102D200004F1180000F0A9FA2461C5F138006462CA
:102D3000A061666584F858604A465146384600F0FE
:102D40003BFA2060B8F1000F01D0C8F80040BDE8A0
:102D5000F087000030B5114900E011460A68824250
:102D6000FBD34B685C18844203D140681844486028
:102D7000084643681C18944209D1084C103C24684A
:102D8000A24209D052681A4442600A68126802607E
:102D9000814200D0086030BD0460F9E79000002057
:102DA00070B5002441600B4D0061914206D8D11AE4
:102DB0008269914206D2011D686807E09A4203D2F7
:102DC000994201D3012403E0011D286800F058FA5C
:102DD000204670BD6800002010B5044600F074FA6B
:102DE000A06B28B15FF0000400F08EFA204610BD01
:102DF0000124F9E730B589B0304D55E0049800283A
:102E000006DADDE90601059A9047049800284BDBB5
:102E1000069C606910B1201D00F0FAF902A800F0CC
:102E2000B9F8024604980A283ED2DFE800F005050A
:102E3000053D263705053D260598A1690346014451
:102E40002046FFF7ADFF00B3616A20468847E0697E
:102E5000012829D1002000900598A169002342187B
:102E60001946204601F0BCF878B9502080F311884B
:102E7000BFF34F8FBFF36F8FFEE70598A06128B1B6
:102E8000811813462046FFF78BFF0DE0502080F39A
:102E90001188BFF34F8FBFF36F8FFEE794F82C00BC
:102EA00010B9204600F044FA002204A9A86800F0F6
:102EB000E7FD0028A2D109B030BD00006800002065
:102EC0002DE9FC410F46054600F0C6FB01A800F0C5
:102ED00061F80446019818B100F0F0FFBDE8FC81EC
:102EE000224EAFB170680068A8B30027291B3A468C
:102EF000B06800F09BFA00F0E1FF0028EED11C4919
:102F00004FF080500860BFF34F8FBFF36F8FE5E73E
:102F1000A542EBD800F0D2FF30682746C068C468ED
:102F2000201D00F075F9E069012810D1A0692B4639
:102F300041193A462046FFF733FF40B100200346CF
:102F4000014600902A46204601F04AF820B1616A05
:102F500020468847C2E707E0502080F31188BFF37E
:102F60004F8FBFF36F8FFEE70127BFE76800002098
:102F700004ED00E006484168096829B14168C96864
:102F8000C9684968016370474FF0FF31FAE70000F4
:102F90002C00002070B5054600F0AEFE064E04463B
:102FA0003069844203D200F009F8012000E00020DB
:102FB00028602046346170BD68000020F8B5194DC6
:102FC0001FE0C068C4680668201D00F021F9616A2E
:102FD00020468847E069012813D1A0693044B042F7
:102FE00006D924616060211D286800F049F908E0D5
:102FF00000200346014600903246204600F0F0FFD4
:1030000038B1286801680029DBD16968C5E900107A
:10301000F8BD502080F31188BFF34F8FBFF36F8F3F
:10302000FEE700006800002008484068401C4FF0A0
:10303000500080F3118804D0BFF34F8FBFF36F8F20
:10304000FEE7BFF34F8FBFF36F8FFEE798000020BE
:10305000074C2068016841B1C0680021D0F8000029
:10306000FFF72EFFFFF7C6FEF3E701210020F7E789
:10307000680000202DE9F041044600F025F994F99C
:10308000455004F1240609E0606A48B1304600F07A
:10309000DDFE08B100F062FA6D1E6DB2002DF3DCAA
:1030A0004FF0FF3684F8456000F02EF900F00CF97F
:1030B00094F9445004F1100709E0206948B13846FA
:1030C00000F0C4FE08B100F049FA6D1E6DB2002D8B
:1030D000F3DC84F84460BDE8F04100F015B900006D
:1030E0002DE9F0410546002700F0B6FA314E306870
:1030F00008B9FFF779FDF06805424BD1C5B3083533
:1031000068070ED005F00700C0F108000544680705
:1031100007D0502080F31188BFF34F8FBFF36F8F1C
:10312000FEE72DB37068854234D82248103001463E
:103130000C6801E020460C466168A94202D2216871
:103140000029F7D131688C4224D0076821680160DA
:1031500060680837411B10290FD96019420708D051
:10316000502080F31188BFF34F8FBFF36F8FFEE7BE
:1031700010E041606560FFF7EDFD61687068401A1E
:103180007060B268904200D2B060F06801430020E5
:10319000C4E9000100F092FE780707D0502080F3C8
:1031A0001188BFF34F8FBFF36F8FFEE73846BDE83E
:1031B000F08100008000002010B5031F4FF08074E4
:1031C0001C601B1F21F001011960191F024B0B60CD
:1031D000143940380A6010BD293000080A4A30B45A
:1031E00012880A4B42F010020024C3E900249C60BC
:1031F000C3E903411C75044B0449024630BC1B1D46
:10320000A1F17000FDF784BC000000204C010020FB
:10321000D0E9013201699A60D0E901235A604A6815
:10322000824201D182684A60002202610868401E21
:103230000860086870470000034B036003F15C00FE
:1032400008608020106070474C080020044B036029
:1032500003F15C0008604FF480701060704700005C
:10326000A80A002000F108014FF0FF32C0E9011266
:10327000C160016100210160704700210161704758
:1032800030B50B685A1C02D000F1080202E0026956
:1032900004E02246546825689D42FAD953684B6081
:1032A00099608A60516008610168491C016030BD05
:1032B00042684A6093688B609368596091600861C6
:1032C0000168491C01607047502080F31188BFF3EA
:1032D0004F8FBFF36F8F0A494868401C4860012830
:1032E0000CD10848006810F0FF0F07D0502080F381
:1032F0001188BFF34F8FBFF36F8FFEE77047000059
:103300009800002004ED00E00849486828B1401EFC
:10331000486001D180F311887047502080F31188F4
:10332000BFF34F8FBFF36F8FFEE7000098000020C0
:1033300070B5002827D0144DA0F108046168E86832
:10334000014207D1502080F31188BFF34F8FBFF3A4
:103350006F8FFEE722683AB1502080F31188BFF3E7
:103360004F8FBFF36F8FFEE78143616000F074F908
:1033700060686968084468602046FFF7EBFCBDE8B8
:10338000704000F09BBD70BD800000204FF0E02039
:1033900000210161816105494FF47A720968B1FB2E
:1033A000F2F1491E416107210161704728000020A8
:1033B00010B5FCF731FF114910280ED300F1E020C1
:1033C00090F8F0030A78904207D2502080F31188D9
:1033D000BFF34F8FBFF36F8FFEE70948006889681E
:1033E00000F4E060884207D9502080F31188BFF3D1
:1033F0004F8FBFF36F8FFEE710BD000098000020D5
:103400000CED00E010B5084B002200BF53F832402D
:103410001CB1521C082AF9D310BD43F8321003EB3B
:10342000C201486010BD00003002002070B5154692
:103430000E460446FFF748FF94F944100020491C4B
:1034400001D184F8440094F94510491C01D184F855
:103450004500FFF759FFA06B28B92A46314604F111
:10346000240000F099F82046BDE87040FFF702BE46
:1034700010B5020014D00F48806B38B1502080F393
:103480001188BFF34F8FBFF36F8FFEE700F0E4F8B2
:1034900000211046FFF782FA00F010FD002807D146
:1034A00005494FF080500860BFF34F8FBFF36F8F17
:1034B00010BD00002C00002004ED00E070B50546B2
:1034C000FFF702FF1E4C05B92568281DFFF7A0FE77
:1034D000A86A18B105F11800FFF79AFEE06A401CCF
:1034E000E0622068854207D1291D1648FFF7E0FEFB
:1034F000E068401CE06007E02069401E206128462B
:10350000FFF757FBFFF736FDFFF7FEFEE0690028E7
:1035100014D02068854211D1A06B38B1502080F3BF
:103520001188BFF34F8FBFF36F8FFEE706494FF04F
:1035300080500860BFF34F8FBFF36F8F70BD0000E6
:103540002C0000200C07002004ED00E002498A6AEC
:1035500002604969416070472C0000200149012048
:10356000486270472C00002010B50C4650B1094944
:1035700009681831FFF784FE2046BDE8104001219C
:10358000FFF70CBA502080F31188BFF34F8FBFF3C1
:103590006F8FFEE72C00002070B514460D4668B111
:1035A0000A4909681831FFF783FE0CB14FF0FF3567
:1035B00021462846BDE87040FFF7F0B9502080F35F
:1035C0001188BFF34F8FBFF36F8FFEE72C000020F1
:1035D00030B587B00024039405AA04A903A8049475
:1035E000FFF72AFEDDE903010094CDE90110002375
:1035F00015A11748059A00F046FB164D0028686390
:103600001FD000F0BDFC012809D0401C19D150206A
:1036100080F31188BFF34F8FBFF36F8FFEE7502009
:1036200080F31188BFF34F8FBFF36F8F4FF0FF30E0
:1036300028630120E8616C6107B0BDE8304000F00C
:1036400045B807B030BD000049444C4500000000BB
:10365000352C00082C0000200248816B491C816336
:10366000704700002C000020164810B5816B11B186
:103670000121416210BD002141628169124A01E0CD
:10368000B9B1491E01EB810352F82330002BF7D06A
:1036900001EB810302EB830202F1080453685B68CB
:1036A0005360A34201D15B685360DA6802608161B4
:1036B00010BD502080F31188BFF34F8FBFF36F8F81
:1036C000FEE700002C000020700200201CB52649F7
:1036D00008780190FF20087008788DF800009DF8A8
:1036E00000009DF8002000F0F000904207D050202C
:1036F00080F31188BFF34F8FBFF36F8FFEE79DF804
:1037000000001A4B00F0500018700720986005E088
:103710009DF8002052008DF80020401E9DF80020EA
:103720001206F5D49860032807D0502080F3118842
:10373000BFF34F8FBFF36F8FFEE74FF44070986079
:10374000019808700A48016841F47001016001683D
:1037500041F070410160FFF719FE00205860FCF74E
:1037600025FD00201CBD000000E400E098000020C2
:1037700020ED00E038B5049D18B153B1CAB181B154
:1037800020E0502080F31188BFF34F8FBFF36F8F7D
:10379000FEE7502080F31188BFF34F8FBFF36F8F88
:1037A000FEE7502080F31188BFF34F8FBFF36F8F78
:1037B000FEE739B1502080F31188BFF34F8FBFF37C
:1037C0006F8FFEE750241C46012384F846302B46B9
:1037D0000094FFF75FFA204638BD000070B50D4633
:1037E000040025D0FFF770FDD4E90F20216802FB0B
:1037F000001161600021A1632168A1600A46D4E93B
:103800000F01401E00FB0121E16021464FF0FF3017
:1038100001F8440F487004F110008DB1FFF722FD4C
:1038200004F12400FFF71EFDFFF76EFD012070BDBF
:10383000502080F31188BFF34F8FBFF36F8FFEE7E7
:1038400021690029F0D000F001FB0028ECD00449E8
:103850004FF080500860BFF34F8FBFF36F8FE3E7E7
:1038600004ED00E02DE9FF4782B01D468A464FF087
:103870000008040003D0BAF1000F08D011E0502076
:1038800080F31188BFF34F8FBFF36F8FFEE7206C7B
:1038900038B1502080F31188BFF34F8FBFF36F8F83
:1038A000FEE7022D0AD1E06B012807D0502080F3FB
:1038B0001188BFF34F8FBFF36F8FFEE700F00EFA52
:1038C0003F4F4FF000094FF0805648B9049838B187
:1038D000502080F31188BFF34F8FBFF36F8FFEE747
:1038E000FFF7F2FCA06BE16B884207D3022D05D0F5
:1038F0000498D0B1B8F1000F1AD01EE02A46514604
:103900002046FFF720F9616A19B104F1240000F0A4
:103910009DFA20B13E60BFF34F8FBFF36F8FFFF76B
:10392000F3FC012006B0BDE8F087FFF7EDFC22E0D4
:103930006846FFF70BFE4FF00108FFF7E5FCFFF7C5
:103940008BFEFFF7C1FC94F94400401C01D184F8C0
:10395000449094F94500401C01D184F84590FFF74C
:10396000D3FC04A9684600F027F930B12046FFF7E0
:1039700081FB00F0A3FA0020D4E7FFF7A5FCA06BC1
:10398000E16B884213D1FFF7BFFC04F110000499EA
:10399000FFF7EAFD2046FFF76DFB00F08FFA0028E5
:1039A0009ED13E60BFF34F8FBFF36F8F98E7FFF755
:1039B000ABFC2046FFF75EFB00F080FA90E70000CA
:1039C00004ED00E02DE9F0471F46904689460400CB
:1039D00003D0B9F1000F08D011E0502080F3118816
:1039E000BFF34F8FBFF36F8FFEE7206C38B15020CD
:1039F00080F31188BFF34F8FBFF36F8FFEE7022F65
:103A00000AD1E06B012807D0502080F31188BFF362
:103A10004F8FBFF36F8FFEE7FFF7CAFC5020EFF325
:103A2000118680F31188BFF34F8FBFF36F8FA06BA8
:103A3000E16B884206D3022F04D0002086F3118860
:103A4000BDE8F08794F945503A4649462046FFF7CD
:103A50007AF8681C04D06D1C84F845500120EDE70D
:103A6000606A0028FAD004F1240000F0EFF9002881
:103A7000F4D0B8F1000FF1D00121C8F80010EDE743
:103A80002DE9F747002683B08A46040003D0BAF137
:103A9000000F08D011E0502080F31188BFF34F8F42
:103AA000BFF36F8FFEE7206C38B1502080F3118890
:103AB000BFF34F8FBFF36F8FFEE700F00FF9DFF812
:103AC000F4804FF000094FF0805748B9059838B19D
:103AD000502080F31188BFF34F8FBFF36F8FFEE745
:103AE000FFF7F2FBA56BC5B151462046FFF718F86A
:103AF0006D1EA563206950B104F1100000F0A6F915
:103B000028B1C8F80070BFF34F8FBFF36F8FFFF776
:103B1000FBFB012006B0BDE8F087059808B11EB197
:103B200006E0FFF7F1FB27E06846FFF70FFD0126EF
:103B3000FFF7EAFBFFF790FDFFF7C6FB94F944009F
:103B4000401C01D184F8449094F94500401C01D1F7
:103B500084F84590FFF7D8FB05A9684600F02CF8DB
:103B6000002820460AD0FFF785FA00F0A7F9204682
:103B7000FFF732F90028B3D00020CBE7FFF72CF98C
:103B800090B104F124000599FFF7EEFC2046FFF701
:103B900071FA00F093F90028A2D1C8F80070BFF3C1
:103BA0004F8FBFF36F8F9BE72046FFF763FA00F05C
:103BB00085F995E704ED00E02DE9F0410C4605009C
:103BC00011D0C4B1FFF780FB174B5A696E682068AB
:103BD000911B471C17D02F689B6A9F4219D09642B1
:103BE00017D8012410E0502080F31188BFF34F8FC5
:103BF000BFF36F8FFEE7502080F31188BFF34F8F24
:103C0000BFF36F8FFEE70024FFF77EFB2046BDE881
:103C1000F081884205D9401A20602846FFF796FCBB
:103C2000F1E700202060DCE72C0000202DE9FF5F99
:103C30008346DDE90E87994616468A469000FFF7CF
:103C40004FFA05001CD05C20FFF74AFA040014D09C
:103C50000020256384F85900CDE90240CDE90087B2
:103C60004B46324651465846FFF725F82046FEF7A8
:103C7000C3FE012004B0BDE8F09F2846FFF758FBC3
:103C80004FF0FF30F6E7F0B585B0DDE90B640A9D33
:103C9000A6B1DCB15C2700972663022684F8596040
:103CA000002604AFCDE90246CDE90057FFF703F83F
:103CB0002046FEF7A1FE049805B0F0BD502080F329
:103CC0001188BFF34F8FBFF36F8FFEE7502080F353
:103CD0001188BFF34F8FBFF36F8FFEE70548C169AF
:103CE00019B1806B18B10020704701207047022085
:103CF000704700002C000020014840697047000018
:103D00002C0000202DE9F0412E4C0027A06B40B183
:103D1000206A401C2062606A00B101273846BDE875
:103D2000F0816669761C666113D16068006838B1FD
:103D3000502080F31188BFF34F8FBFF36F8FFEE7E2
:103D40006068A1686160A060A06A401CA062FFF783
:103D500011F9206BDFF87080864209D36068006833
:103D600080B16068C068C568686886420DD220630B
:103D70002068C06A00EB800158F821000128CAD9E8
:103D80000127C8E74FF0FF30F1E7281DFFF740FAA1
:103D9000A86A18B105F11800FFF73AFAE86AA169B4
:103DA000884200D9A06100EB800108EB8100291D49
:103DB000FFF77EFAE86A2168C96A8842CED30127F4
:103DC000CCE700002C0000207002002070B5040039
:103DD0004FF0000133D01B4D2868844207D050209B
:103DE00080F31188BFF34F8FBFF36F8FFEE7206D15
:103DF00038B1401E2065E36CE26A9A421FD040B1A0
:103E00001DE0502080F31188BFF34F8FBFF36F8FF9
:103E1000FEE7201DFFF7FCF9E06CE062C0F138001E
:103E2000A061E06AA969884200D9A861064900EB4F
:103E3000800001EB8000211DFFF73AFA01210846BE
:103E400070BD00002C0000207002002070B5C0681A
:103E5000C46854B104F118000646FFF7D9F9144DAF
:103E6000A86B50B13146134815E0502080F31188FB
:103E7000BFF34F8FBFF36F8FFEE7201DFFF7C8F929
:103E8000E06AA969884200D9A8610B4900EB80006B
:103E900001EB8000211DFFF70BFAE06A2968C96A6F
:103EA000884202D90120686270BD002070BD000008
:103EB0002C000020F8060020700200202DE9F047B9
:103EC0002C4D00242746A86B38B1FFF7FDF9A86BED
:103ED000401EA863A86B40B146E0502080F31188D3
:103EE000BFF34F8FBFF36F8FFEE72969224E01208A
:103EF000D1B3A6F5916980463068E0B1F068C46836
:103F000004F11800FFF784F9201DFFF781F9E06A3A
:103F1000A969884200D9A86100EB800109EB810002
:103F2000211DFFF7C5F9E06A2968C96A8842E3D311
:103F3000C5F82480E0E70CB1FFF71CF82C6A4CB1FF
:103F40004FEA0806FFF7DEFE00B16E62641EF9D18B
:103F500000202862686A38B10849012738070860DC
:103F6000BFF34F8FBFF36F8FFFF7CEF93846BDE831
:103F7000F08700002C000020F806002004ED00E08F
:103F800010B586B0FEF7A0FD114CA068B8B10020B6
:103F90000390049005AA04A903A8FFF757F9DDE9E7
:103FA000032102208DE8070000230AA10B48059A8F
:103FB000FFF769FEE06010B106B0012010BD50208F
:103FC00080F31188BFF34F8FBFF36F8FFEE70000C0
:103FD00068000020546D7220537663005130000851
:103FE0002DE9FF411E46134602000A9D4FF00000D6
:103FF00016D0144CA768002F0FD0CDE90013029201
:10400000062917DAFFF76AFE02284FF000030FD0E7
:1040100000226946A068FFF725FC04B0BDE8F081E6
:10402000502080F31188BFF34F8FBFF36F8FFEE7EF
:104030002A46EEE70023324669463846FFF7C2FCBF
:10404000EBE70000680000200441000800000000C9
:10405000000000000000000000000000000200005E
:10406000180000000000000000000000EC40000804
:104070000000000000000000000000000000000040
:104080000002000018000000000000000000000016
:10409000F4400008000000000000000000000000E4
:1040A00000000000000200001800000000000000F6
:1040B00000000000010202030405060708090A0BBC
:1040C0000C0D0E0F10100000000000000000010297
:1040D00003040607080900000000010203040A099E
:1040E0000807060500010203040000006164635430
:1040F00061736B0064617461446973706F736554BC
:1041000061736B0064656661756C745461736B00F8
:104110003041000800000020AC0000002801000829
:10412000DC410008AC0000208425000044010008A8
:10413000000000000000000000000000000000007F
:10414000000000000000000000000000010000006E
:1041500010000000000000000024F4000000000037
:10416000000000000000000000000000000000004F
:10417000000000000000000000000000000000003F
:10418000000000000000000000000000000000002F
:10419000000000000000000000000000000000001F
:1041A000000000000000000000000000000000000F
:1041B00000000000000000000000000000000000FF
:1041C000000000000000000000000000AAAAAAAA47
:0C41D000000000000000000000000000E3
:04000005080000ED02
:00000001FF
